:100000000C94C9090C94EF090C94EF090C94EF09B6
:100010000C94EF090C94EF090C94EF090C94EF0980
:100020000C94EF090C94EF090C94EF090C94EF0970
:100030000C94EF090C943D300C94700F0C94EF0964
:100040000C94EF090C94EF090C94EF090C94EF0950
:100050000C9403380C94EF090C94EF090C94EF09FD
:100060000C94EF090C94F9320C9401340C94EF09C0
:100070000C94EF090C94EF090C94EF090C94EF0920
:100080000C94EF090C94EF090C94EF090C94EF0910
:100090000C94EF090C94EF090C94EF090C94EF0900
:1000A0000C94EF090C94EF090C94EF090C94EF09F0
:1000B0000C94EF090C946A0B0C94350B0C94EF091B
:1000C0000C94EF090C94EF090C94EF090C94EF09D0
:1000D0000C94EF090C94EF090C94EF090C94EF09C0
:1000E0000C94EF090C94EF090C94A9330C94C734C9
:1000F0000C94EF090C94EF090C94EF090C94EF09A0
:100100000C94EF090C94EF090C94EF090C94EF098F
:100110000C94EF090C94EF090C94EF090C94C83679
:100120000C9405370C9442370C947F370C94EF09EC
:100130000C94EF090C942A390C94EF090C94EF09F4
:100140000C94EF090C94EF090C94EF090C94EF094F
:100150000C94EF090C94EF090C94EF090C94EF093F
:100160000C9451330C9464340C94EF090C94EF0903
:100170000C94EF090C94EF090C94EF090C94EF091F
:100180000C94EF090C94EF090C94EF090C94EF090F
:100190000C94EF090C94EF090C94EF090C94EF09FF
:1001A0000C94EF090C94EF090C94EF090C94EF09EF
:1001B0000C94EF090C94EF090C94EF090C94EF09DF
:1001C0000C94EF090C94EF090C94EF090C94EF09CF
:1001D0000C94EF090C94EF090C94EF090C94EF09BF
:1001E0000C94EF090C94EF090C94EF090C94EF09AF
:1001F0000C94EF090C94EF090C94EF09370A460AA6
:10020000550A640A730A820A910AA00AF01CF01CBB
:10021000F01C281D171D251DF01CF01C281D171D86
:100220003A29C929442988299429A829B9290800E3
:100230000000BE922449123EABAAAA2ABECDCCCC65
:100240004C3E00000080BEABAAAAAA3E00000000FF
:10025000BF000000803F0000000000084178D3BBD1
:100260004387D1133D190E3CC3BD4282AD2B3E687E
:10027000EC8276BED98FE1A93E4C80EFFFBE01C46F
:10028000FF7F3F00000000000000000180008001AF
:1002900040004001C000C00120002001A000A001DA
:1002A00060006001E000E00110001001900090018A
:1002B00050005001D000D00130003001B000B0013A
:1002C00070007001F000F00108000801880088014A
:1002D00048004801C800C80128002801A800A8015A
:1002E00068006801E800E80118001801980098010A
:1002F00058005801D800D80138003801B800B801BA
:1003000078007801F800F8010400040184008401F9
:1003100044004401C400C40124002401A400A40139
:1003200064006401E400E4011400140194009401E9
:1003300054005401D400D40134003401B400B40199
:1003400074007401F400F4010C000C018C008C01A9
:100350004C004C01CC00CC012C002C01AC00AC01B9
:100360006C006C01EC00EC011C001C019C009C0169
:100370005C005C01DC00DC013C003C01BC00BC0119
:100380007C007C01FC00FC01020002018200820171
:1003900042004201C200C20122002201A200A201C9
:1003A00062006201E200E201120012019200920179
:1003B00052005201D200D20132003201B200B20129
:1003C00072007201F200F2010A000A018A008A0139
:1003D0004A004A01CA00CA012A002A01AA00AA0149
:1003E0006A006A01EA00EA011A001A019A009A01F9
:1003F0005A005A01DA00DA013A003A01BA00BA01A9
:100400007A007A01FA00FA010600060186008601E8
:1004100046004601C600C60126002601A600A60128
:1004200066006601E600E6011600160196009601D8
:1004300056005601D600D60136003601B600B60188
:1004400076007601F600F6010E000E018E008E0198
:100450004E004E01CE00CE012E002E01AE00AE01A8
:100460006E006E01EE00EE011E001E019E009E0158
:100470005E005E01DE00DE013E003E01BE00BE0108
:100480007E007E01FE00FE0101000101810081016C
:1004900041004101C100C10121002101A100A101D0
:1004A00061006101E100E101110011019100910180
:1004B00051005101D100D10131003101B100B10130
:1004C00071007101F100F101090009018900890140
:1004D00049004901C900C90129002901A900A90150
:1004E00069006901E900E901190019019900990100
:1004F00059005901D900D90139003901B900B901B0
:1005000079007901F900F9010500050185008501EF
:1005100045004501C500C50125002501A500A5012F
:1005200065006501E500E5011500150195009501DF
:1005300055005501D500D50135003501B500B5018F
:1005400075007501F500F5010D000D018D008D019F
:100550004D004D01CD00CD012D002D01AD00AD01AF
:100560006D006D01ED00ED011D001D019D009D015F
:100570005D005D01DD00DD013D003D01BD00BD010F
:100580007D007D01FD00FD01030003018300830167
:1005900043004301C300C30123002301A300A301BF
:1005A00063006301E300E30113001301930093016F
:1005B00053005301D300D30133003301B300B3011F
:1005C00073007301F300F3010B000B018B008B012F
:1005D0004B004B01CB00CB012B002B01AB00AB013F
:1005E0006B006B01EB00EB011B001B019B009B01EF
:1005F0005B005B01DB00DB013B003B01BB00BB019F
:100600007B007B01FB00FB010700070187008701DE
:1006100047004701C700C70127002701A700A7011E
:1006200067006701E700E7011700170197009701CE
:1006300057005701D700D70137003701B700B7017E
:1006400077007701F700F7010F000F018F008F018E
:100650004F004F01CF00CF012F002F01AF00AF019E
:100660006F006F01EF00EF011F001F019F009F014E
:100670005F005F01DF00DF013F003F01BF00BF01FE
:100680007F007F01FF00FF01000000000000803FAD
:100690008010493C16FB7F3F350AC93C46EC7F3F42
:1006A000F0C2163D91D37F3F87FB483D07B17F3FA6
:1006B000BB2B7B3DA9847F3F3FA9963D664E7F3F84
:1006C00056B6AF3D5E0E7F3F23BDC83D72C47E3F30
:1006D00012BCE13DB0707E3F9EB2FA3D2B137E3FCF
:1006E0009ACF093ED2AB7D3F6440163EB43A7D3F7F
:1006F000ACAB223EC2BF7C3FAA102F3E2E3B7C3FBC
:10070000D66E3B3EC5AC7B3FACC5473EBA147B3F83
:10071000E814543EFC727A3F035C603E9BC7793F0D
:10072000789A6C3E9912793FC0CF783EF453783F67
:10073000CC7D823EBD8B773F9B8E883E06BA763F4E
:100740002C9A8E3ECEDE753F3CA0943E05FA743F57
:1007500088A09A3EDD0B743FED9AA03E4414733F8F
:10076000088FA63E4D13723FD97CAC3E0709713FFE
:10077000FA63B23E73F56F3F2844B83EA1D86E3F8E
:10078000431DBE3E92B26D3F07EFC33E66836C3F92
:1007900052B9C93E0E4B6B3FC07BCF3EAB096A3F9F
:1007A0005036D53E3CBF683F7DE8DA3ED36B673FAD
:1007B0004792E03E800F663F6A33E63E54AA643FAC
:1007C000C5CBEB3E603C633FF35AF13E93C5613FBE
:1007D000D2E0F63E2046603F205DFC3E06BE5E3F16
:1007E000DEE7003F562D5D3F419C033F21945B3F78
:1007F000884B063F67F2593FA1F5083F5A48583FDA
:100800006B9A0B3FEA95563FD6390E3F38DB543F83
:10081000D0D3103F4418533F2768133F404D513FFA
:10082000DCF6153F1C7A4F3FBB7F183F0A9F4D3FB8
:10083000C5021B3FF9BB4B3FD87F1D3F0BD1493F42
:10084000C2F61F3F61DE473F9467223FFCE3453F0E
:100850002DD2243FFCE1433F5936273F73D8413F17
:100860001894293F60C73F3F4AEB2B3FF7AE3D3F0F
:10087000DE3B2E3F368F3B3FC285303F4068393FDD
:10088000C5C8323F263A373FF704353FF704353FB6
:10089000263A373FC5C8323F4068393FC285303FAE
:1008A000368F3B3FDE3B2E3FF7AE3D3F4AEB2B3FC3
:1008B00060C73F3F1894293F73D8413F5936273FBF
:1008C000FCE1433F2DD2243FFCE3453F9467223FA8
:1008D00061DE473FC2F61F3F0BD1493FD87F1D3F26
:1008E000F9BB4B3FC5021B3F0A9F4D3FBB7F183FE3
:1008F0001C7A4F3FDCF6153F404D513F2768133FB0
:100900004418533FD0D3103F38DB543FD6390E3F05
:10091000EA95563F6B9A0B3F5A48583FA1F5083F5E
:1009200067F2593F884B063F21945B3F419C033F50
:10093000562D5D3FDEE7003F06BE5E3F205DFC3E7C
:100940002046603FD2E0F63E93C5613FF35AF13E48
:10095000603C633FC5CBEB3E54AA643F6A33E63E3E
:10096000800F663F4792E03ED36B673F7DE8DA3EFB
:100970003CBF683F5036D53EAB096A3FC07BCF3E97
:100980000E4B6B3F52B9C93E66836C3F07EFC33EC7
:1009900092B26D3F431DBE3EA1D86E3F2844B83E83
:1009A00073F56F3FFA63B23E0709713FD97CAC3EE5
:1009B0004D13723F088FA63E4414733FED9AA03E3C
:1009C000DD0B743F88A09A3E05FA743F3CA0943E2C
:1009D000CEDE753F2C9A8E3E06BA763F9B8E883EC1
:1009E000BD8B773FCC7D823EF453783FC0CF783EBD
:1009F0009912793F789A6C3E9BC7793F035C603EC1
:100A0000FC727A3FE814543EBA147B3FACC5473EB3
:100A1000C5AC7B3FD66E3B3E2E3B7C3FAA102F3EA3
:100A2000C2BF7C3FACAB223EB43A7D3F6440163E31
:100A3000D2AB7D3F9ACF093E2B137E3F9EB2FA3D4B
:100A4000B0707E3F12BCE13D72C47E3F23BDC83D05
:100A50005E0E7F3F56B6AF3D664E7F3F3FA9963D47
:100A6000A9847F3FBB2B7B3D07B17F3F87FB483D80
:100A700091D37F3FF0C2163D46EC7F3F350AC93C1B
:100A800016FB7F3F8010493C0000803F00000000C3
:100A900016FB7F3F801049BC46EC7F3F350AC9BC3E
:100AA00091D37F3FF0C216BD07B17F3F87FB48BDA2
:100AB000A9847F3FBB2B7BBD664E7F3F3FA996BD80
:100AC0005E0E7F3F56B6AFBD72C47E3F23BDC8BD2C
:100AD000B0707E3F12BCE1BD2B137E3F9EB2FABDCB
:100AE000D2AB7D3F9ACF09BEB43A7D3F644016BE7B
:100AF000C2BF7C3FACAB22BE2E3B7C3FAA102FBEB8
:100B0000C5AC7B3FD66E3BBEBA147B3FACC547BE7F
:100B1000FC727A3FE81454BE9BC7793F035C60BE09
:100B20009912793F789A6CBEF453783FC0CF78BE63
:100B3000BD8B773FCC7D82BE06BA763F9B8E88BE4A
:100B4000CEDE753F2C9A8EBE05FA743F3CA094BE53
:100B5000DD0B743F88A09ABE4414733FED9AA0BE8B
:100B60004D13723F088FA6BE0709713FD97CACBEFA
:100B700073F56F3FFA63B2BEA1D86E3F2844B8BE8A
:100B800092B26D3F431DBEBE66836C3F07EFC3BE8E
:100B90000E4B6B3F52B9C9BEAB096A3FC07BCFBE9B
:100BA0003CBF683F5036D5BED36B673F7DE8DABEA9
:100BB000800F663F4792E0BE54AA643F6A33E6BEA8
:100BC000603C633FC5CBEBBE93C5613FF35AF1BEBA
:100BD0002046603FD2E0F6BE06BE5E3F205DFCBE12
:100BE000562D5D3FDEE700BF21945B3F419C03BF74
:100BF00067F2593F884B06BF5A48583FA1F508BFD6
:100C0000EA95563F6B9A0BBF38DB543FD6390EBF7F
:100C10004418533FD0D310BF404D513F276813BFF6
:100C20001C7A4F3FDCF615BF0A9F4D3FBB7F18BFB4
:100C3000F9BB4B3FC5021BBF0BD1493FD87F1DBF3E
:100C400061DE473FC2F61FBFFCE3453F946722BF0A
:100C5000FCE1433F2DD224BF73D8413F593627BF13
:100C600060C73F3F189429BFF7AE3D3F4AEB2BBF0B
:100C7000368F3B3FDE3B2EBF4068393FC28530BFD9
:100C8000263A373FC5C832BFF704353FF70435BFB2
:100C9000C5C8323F263A37BFC285303F406839BFAA
:100CA000DE3B2E3F368F3BBF4AEB2B3FF7AE3DBFBF
:100CB0001894293F60C73FBF5936273F73D841BFBB
:100CC0002DD2243FFCE143BF9467223FFCE345BFA4
:100CD000C2F61F3F61DE47BFD87F1D3F0BD149BF22
:100CE000C5021B3FF9BB4BBFBB7F183F0A9F4DBFDF
:100CF000DCF6153F1C7A4FBF2768133F404D51BFAC
:100D0000D0D3103F441853BFD6390E3F38DB54BF01
:100D10006B9A0B3FEA9556BFA1F5083F5A4858BF5A
:100D2000884B063F67F259BF419C033F21945BBF4C
:100D3000DEE7003F562D5DBF205DFC3E06BE5EBF78
:100D4000D2E0F63E204660BFF35AF13E93C561BF44
:100D5000C5CBEB3E603C63BF6A33E63E54AA64BF3A
:100D60004792E03E800F66BF7DE8DA3ED36B67BFF7
:100D70005036D53E3CBF68BFC07BCF3EAB096ABF93
:100D800052B9C93E0E4B6BBF07EFC33E66836CBFC3
:100D9000431DBE3E92B26DBF2844B83EA1D86EBF7F
:100DA000FA63B23E73F56FBFD97CAC3E070971BFE1
:100DB000088FA63E4D1372BFED9AA03E441473BF38
:100DC00088A09A3EDD0B74BF3CA0943E05FA74BF28
:100DD0002C9A8E3ECEDE75BF9B8E883E06BA76BFBD
:100DE000CC7D823EBD8B77BFC0CF783EF45378BFB9
:100DF000789A6C3E991279BF035C603E9BC779BFBD
:100E0000E814543EFC727ABFACC5473EBA147BBFAF
:100E1000D66E3B3EC5AC7BBFAA102F3E2E3B7CBF9F
:100E2000ACAB223EC2BF7CBF6440163EB43A7DBF2D
:100E30009ACF093ED2AB7DBF9EB2FA3D2B137EBF47
:100E400012BCE13DB0707EBF23BDC83D72C47EBF01
:100E500056B6AF3D5E0E7FBF3FA9963D664E7FBF43
:100E6000BB2B7B3DA9847FBF87FB483D07B17FBF7C
:100E7000F0C2163D91D37FBF350AC93C46EC7FBF17
:100E80008010493C16FB7FBF00000000000080BFBF
:100E90000000000003836BF2F7703BE1F4F35013A2
:100EA0001F979AC71C14F135E8E7A126EB64CAD452
:100EB000CF58D98ACCDBB2783828E26B3BAB899922
:100EC000D0CF434DD34C28BF27BF78AC243C135E12
:100ED0006FC75E106C4435E298B765F19B340E0322
:100EE0007050C4D773D3AF258720FF3684A394C432
:100EF000A09F879AA31CEC6857EFBC7B546CD789E2
:100F0000BF081D5DBC8B76AF487826BC4BFB4D4EB1
:100F1000DE8EBD20DD0DD6D229FE86C12A7DED33C1
:100F2000C11927E7C29A4C1536691C0635EA77F4D1
:100F300011D664AA12550F58E6A65F4BE52534B9C1
:100F40000E41FE6D0DC2959FF931C58CFAB2AE7E91
:100F5000B149E330B2CA88C24639D8D145BAB323C1
:100F6000AEDE79F7AD5D120559AE42165A2D29E471
:100F70007E113ABA7D9251488961015B8AE26AA981
:100F80006186A07D6205CB8F96F69B9C9575F06E71
:100F9000BC1D7B41BF9E10B34B6D40A048EE2B5251
:100FA000A38AE186A0098A7454FADA675779B19561
:100FB0007345A2CB70C6C9398435992A87B6F2D851
:100FC0006CD2380C6F5153FE9BA203ED9821681F21
:100FD000D3DA2551D0594EA324AA1EB02729754231
:100FE000CC4DBF96CFCED4643B3D847738BEEF85E1
:100FF0001C82FCDB1F019729EBF2C73AE871ACC8F1
:101000000315661C00960DEEF4655DFDF7E6360FE0
:101010006293C6616110AD9395E3FD809660967210
:101020007D045CA67E8737548A74674789F70CB5C0
:10103000ADCB1FEBAE4874195ABB240A59384FF890
:10104000B25C852CB1DFEEDE452CBECD46AFD53F80
:101050000D5498710ED7F383FA24A390F9A7C862B0
:1010600012C302B611406944E5B33957E63052A5C0
:10107000C20C41FBC18F2A09357C7A1A36FF11E870
:10108000DD9BDB3CDE18B0CE2AEBE0DD29688B2F40
:10109000783BF6827BB89D708F4BCD638CC8A69150
:1010A00067AC6C45642F07B790DC57A4935F3C5640
:1010B000B7632F08B4E044FA401314E943907F1B50
:1010C000A8F4B5CFAB77DE3D5F848E2E5C07E5DC00
:1010D00017FCA892147FC360E08C9373E30FF88130
:1010E000086B32550BE859A7FF1B09B4FC98624600
:1010F000D8A47118DB271AEA2FD44AF92C57210BF0
:10110000C733EBDFC4B0802D3043D03E33C0BBCCFF
:10111000A6B54BA2A536205051C5704352461BB10F
:10112000B922D165BAA1BA974E52EA844DD18176DF
:1011300069ED92286A6EF9DA9E9DA9C99D1EC23B8F
:10114000767A08EF75F9631D810A330E828958FC9F
:10115000C97215B2CAF17E403E022E533D8145A1AF
:10116000D6E58F75D566E4872195B4942216DF669F
:10117000062ACC3805A9A7CAF15AF7D9F2D99C2B6F
:1011800019BD56FF1A3E3D0DEECD6D1EED4E06EC1F
:10119000C4268DC3C7A5E6313356B62230D5DDD07F
:1011A000DBB11704D8327CF62CC12CE52F4247174F
:1011B0000B7E544908FD3FBBFC0E6FA8FF8D045AFF
:1011C00014E9CE8E176AA57CE399F56FE01A9E9D0F
:1011D000ABE1D3D3A862B8215C91E8325F1283C03F
:1011E000B4764914B7F522E6430672F5408519072F
:1011F00064B90A59673A61AB93C931B8904A5A4AFF
:101200007B2E909E78ADFB6C8C5EAB7F8FDDC08DAE
:101210001AA830E3192B5B11EDD80B02EE5B60F0DE
:10122000053FAA2406BCC1D6F24F91C5F1CCFA37CE
:10123000D5F0E969D673829B2280D2882103B97ADE
:10124000CA6773AEC9E4185C3D17484F3E9423BD8E
:10125000756F6EF376EC0501821F5512819C3EE09E
:101260006AF8F434697B9FC69D88CFD59E0BA4276E
:10127000BA37B779B9B4DC8B4D478C984EC4E76A5E
:10128000A5A02DBEA623464C52D0165F51537DAD6E
:101290006E616E00696E660000407A10F35A00A01D
:1012A000724E18090010A5D4E80000E8764817002F
:1012B00000E40B54020000CA9A3B000000E1F5056F
:1012C000000080969800000040420F000000A086B9
:1012D00001000000102700000000E80300000000EB
:1012E0006400000000000A0000000000010000008F
:1012F00000002C76D888DC674F0823DFC1DFAE59A9
:10130000E1B1B796E5E3E453C63AE651997696E83B
:10131000E6C28426EB898C9B62ED407C6FFCEFBCBF
:101320009C9F40F2BAA56FA5F490055A2AF75C93EA
:101330006B6CF9676DC11BFCE0E40D47FEF520E620
:10134000B500D0ED902E0300943577050080841E03
:10135000080000204E0A000000C80C333333330F5E
:10136000986E12831141EF8D2114893BE65516CFFB
:10137000FEE6DB18D1844B381BF77C1D901DA4BB07
:10138000E424203284725E228100C9F124ECA1E5BC
:101390003D2711241FBECFEFCDBFDFE3DEBF00E04E
:1013A0000CBF18BE19BE1ABE1BBE11E2A0E0B0E20F
:1013B000E6EFF4E800E00BBF02C007900D92AA33FD
:1013C000B107D9F71BBE2DE3AAE3B1E201C01D921C
:1013D000AE3EB207E1F70E94D22A0C9479420C94F7
:1013E000000060E070E0CB010E9486227C0160E298
:1013F0000E94AA246AE070E0C7010E948F2440E0A6
:1014000063E08AE04FD78093013B9093023B0F2E1D
:10141000F7E07F2EF02D0F2EF6E08F2EF02D0F2E01
:10142000F5E09F2EF02D6894AA24A2F80F2EF3E089
:10143000BF2EF02D6894CC24C1F8DD24D39440E174
:1014400057E260E070E0C7010E94CC228C01009757
:10145000B1F389C0C8010E9439210F9788309105E6
:1014600008F07DC082509F4FFC010C94E03FE0E00B
:10147000F0E01082C183D28320E044E650E0BF0157
:101480008091013B9091023B3CD76DC0E0E0F0E0E1
:10149000D082C183D28320E044E650E0BF01809136
:1014A000013B9091023B2DD75EC0E0E0F0E0C082AE
:1014B000C183D28320E04AE050E0BF018091013B2C
:1014C0009091023B1ED74FC0E0E0F0E0B082C183B4
:1014D000D28320E044E650E0BF018091013B90912F
:1014E000023B0FD740C0E0E0F0E0A082C183D2838E
:1014F00020E044E650E0BF018091013B9091023B27
:1015000000D731C0E0E0F0E09082C183D28320E0D8
:1015100044E650E0BF018091013B9091023BF1D63F
:1015200022C0E0E0F0E08082C183D28320E044E684
:1015300050E0BF018091013B9091023BE2D613C085
:10154000E0E0F0E07082C183D28320E044E650E026
:10155000BF018091013B9091023BD3D604C0BE01F4
:10156000C8010E94242944E650E060E070E0C80110
:101570000E94F122EC01009709F06CCFC8010E9493
:1015800014215DCFCF93DF93CDB7DEB7C950D140E3
:10159000CDBFDEBF8091543B813049F58091513BF6
:1015A0008823E1F0E1E5FBE3808190E089879A8779
:1015B0008081882399F0FE013B9680E090E041E530
:1015C0005BE3DC01AC5FB44C14962C912193019643
:1015D000DA012C9130E0821793079CF3E091723C82
:1015E000F091733C60E070E0CE0101961995C75F01
:1015F000DE4FCDBFDEBFDF91CF910895CF92DF9256
:10160000CF93C42F40E460EA74E086E59BE30E9438
:10161000C53042EC5AE060EA74E084E09BE30E944B
:10162000E63140E46C2F84E09BE30E94F731C092E6
:10163000723CD092733C8FEF9FEFCF91DF90CF90B1
:101640000895AB01465F5F4FFB012085668186E50B
:101650009BE30E943131882319F08FEF9FEF0895AB
:1016600081E090E00895089508951F920F920FB6BB
:101670000F92112408B60F9218BE09B60F9219BE28
:101680000BB60F921BBE2F933F934F935F936F93B5
:101690007F938F939F93AF93BF93EF93FF9386E5D1
:1016A0009BE30E94CD31FF91EF91BF91AF919F914C
:1016B0008F917F916F915F914F913F912F910F90FB
:1016C0000BBE0F9009BE0F9008BE0F900FBE0F907B
:1016D0001F9018951F920F920FB60F92112408B603
:1016E0000F9218BE09B60F9219BE0BB60F921BBE11
:1016F0002F933F934F935F936F937F938F939F931A
:10170000AF93BF93EF93FF9384E09BE30E94C632B5
:10171000FF91EF91BF91AF919F918F917F916F91C9
:101720005F914F913F912F910F900BBE0F9009BE8B
:101730000F9008BE0F900FBE0F901F9018954F92FC
:101740005F926F927F928F929F92AF92BF92CF9251
:10175000DF92EF92FF920F931F93CF93DF93CDB75A
:10176000DEB72897CDBFDEBF60E078E181E090E092
:101770000E94CA354C011D821E821F8218860F2EC0
:10178000F8E8CF2EF2E0DF2EF02D0F2EF8E8AF2E86
:10179000F6E0BF2EF02D0F2E412CF8E15F2E612CCC
:1017A000712CF02DC601AA2797FDA095BA2F0BB674
:1017B000ABBFFC0187919791A791B6910BBEAA2769
:1017C00097FDA095BA2F880F991FAA1FBB1F8115DF
:1017D00028E09207A105B105B0F4BC01CD01660F68
:1017E000771F881F991F0E94CA3588199909BC0163
:1017F000882777FD8095982F0E94C33A69837A8362
:101800008B839C8304C019821A821B821C82E9800C
:10181000FA800B811C812D813E814F815885C30147
:10182000B2010E94833582E0C80ED11C28E0420E2E
:10183000511C611C711CCA14DB0409F0B3CF28963B
:10184000CDBFDEBFDF91CF911F910F91FF90EF9041
:10185000DF90CF90BF90AF909F908F907F906F90D0
:101860005F904F9008952F923F924F925F926F92A8
:101870007F928F929F92AF92BF92CF92DF92EF9220
:10188000FF920F931F93CF93DF93CDB7DEB7C6546C
:10189000D109CDBFDEBF20E031E029AB3AAB41E05A
:1018A00050E025964EAF5FAF259725968EAD9FAD44
:1018B00025979D5F880F991F880F991F880F991F83
:1018C0009C0140E050E02FAB38AF49AF5AAF2596AE
:1018D0004EAD5FAD25974115510509F4B4C1CA015C
:1018E00082959295907F9827807F98279C0140E071
:1018F00050E029A73AA74BA75CA749A95AA9440FCA
:10190000551F440F551F440F551F27964EAF5FAF0D
:10191000279788E896E08BAF9CAFA9A9BAA9119741
:1019200029A53AA54BA55CA50E94FB3F1BAAA8E1EF
:10193000ACAB1DAA1EAA1DAE1EAE260F371F481F38
:10194000591F23962CAF3DAF4EAF5FAF2397EBAD42
:10195000FCAD85919591A591B49189A39AA3ABA370
:10196000BCA3EBADFCAD34962591359145915491D6
:101970002DA33EA34FA358A749A95AA9452B09F463
:1019800021C18FA998ADA9ADBAAD8D8B9E8BAF8BC0
:10199000B88F2BA93CA94DA95EA9298B3A8B4B8BFB
:1019A0005C8B212C312C69897A898B899C890E94D6
:1019B000FC3529833A834B835C836D837E838F83DD
:1019C000988789819A81AB81BC818D8F9E8FAF8FE3
:1019D000B8A32D813E814F815885298F3A8F4B8F37
:1019E0005C8F6D897E898F89988D0E94FC3529874F
:1019F0003A874B875C876D877E878F87988B498472
:101A00005A846B847C848D849E84AF84B888A301BF
:101A100092016DA17EA18FA198A50E94943B6B01BC
:101A20007C01A501940169A17AA18BA19CA10E94CE
:101A3000943B9B01AC01C701B6010E942B3A6B019C
:101A40007C01A301920169A17AA18BA19CA10E94B2
:101A5000943B2B013C01A50194016DA17EA18FA1B6
:101A600098A50E94943B9B01AC01C301B2010E9466
:101A70002C3A4B015C01A70196016D8D7E8D8F8DF7
:101A800098A10E942B3A762E572E482E9DA7A5018D
:101A90009401698D7A8D8B8D9C8D0E942B3A662ED8
:101AA0007EA78FA798AB2D8D3E8D4F8D58A1C70176
:101AB000B6010E942C3AE62E462F572F682F792F19
:101AC00049835A836B837C83298D3A8D4B8D5C8D42
:101AD000C501B4010E942C3A262F462F572F682F9C
:101AE000792F4D835E836F837887FA800B811C8109
:101AF0003E814F81588569897A898B899C890E94AA
:101B00008335E72C872D952DA42DBDA589879A8730
:101B1000AB87BC87262D862D9EA5AFA5B8A98D873E
:101B20009E87AF87B88BFA840B851C853E854F85D1
:101B300058896D897E898F89988D0E94833589891E
:101B40009A89AB89BC8929A53AA54BA55CA5820FCA
:101B5000931FA41FB51F898B9A8BAB8BBC8B8D8970
:101B60009E89AF89B88D820F931FA41FB51F8D8BDF
:101B70009E8BAF8BB88F9FEF291A390AA9A9BAA9F2
:101B80002A163B0609F00FCF2BA93CA94DA95EA947
:101B900023968CAD9DADAEADBFAD2397280F391FF9
:101BA0004A1F5B1F2BAB3CAB4DAB5EAB2FA938ADD7
:101BB00049AD5AAD280F391F4A1F5B1F2FAB38AFF5
:101BC00049AF5AAF8BA99CA9ADA9BEA9885F9F4018
:101BD000A109B1098BAB9CABADABBEAB2FA938ADA6
:101BE00049AD5AAD285F3F40410951092FAB38AF8D
:101BF00049AF5AAF4DAD5EAD4F5F5F4F4DAF5EAF7A
:101C00008BAD9CAD2796AEADBFAD27978A0F9B1FBE
:101C10008BAF9CAF25962EAD3FAD2597421753074E
:101C200009F095CE220F331F25962EAF3FAF259793
:101C300049A95AA95695479549AB5AAB2115324047
:101C400008F433CE07C089A99AA99695879589ABE0
:101C50009AAB2BCECA5BDF4FCDBFDEBFDF91CF91FA
:101C60001F910F91FF90EF90DF90CF90BF90AF90BA
:101C70009F908F907F906F905F904F903F902F90AC
:101C80000895CF93DF93EC01D9D740913A21509139
:101C90003B219E01240F351F203787E1380758F478
:101CA0004217530758F4EA01C45CDE4D20933A21F1
:101CB00030933B2105C0C0E0D0E002C0C0E0D0E0DE
:101CC0000E94D116CE01DF91CF910895089531E1A0
:101CD000FC013083319722E220833197A3E3A08374
:101CE00031976083319770833197108231971082DA
:101CF000319760E8608331971082319762E06083AA
:101D0000319763E06083319764E06083319765E0E9
:101D10006083319766E06083319767E06083319735
:101D200068E06083319769E06083319760E16083A8
:101D300031973083319732E13083319733E130830B
:101D4000319734E13083319735E13083319736E193
:101D50003083319737E13083319738E130833197E1
:101D600039E13083319730E23083319731E230838B
:101D700031972083319723E2208331974083319735
:101D80005083319726E22083319727E220833197D1
:101D900028E22083319729E22083319720E32083B2
:101DA000319721E320838797089565E080E098E0EC
:101DB0000E94AD3081E092E0E0E0F8E086A397A3D6
:101DC00061E080E098E00E94B930E0EAF0E08281D2
:101DD00081608283A0911539B0911639CD91CDBF24
:101DE000DD91DEBFFF91EF91DF91CF91BF91AF9178
:101DF0009F918F917F916F915F914F913F912F9123
:101E00001F910F91FF90EF90DF90CF90BF90AF9018
:101E10009F908F907F906F905F904F903F902F900A
:101E20001F900F900FBE0F90089581E008950F92BC
:101E30000FB6F8940F921F9211242F923F924F9257
:101E40005F926F927F928F929F92AF92BF92CF924A
:101E5000DF92EF92FF920F931F932F933F934F9335
:101E60005F936F937F938F939F93AF93BF93CF9322
:101E7000DF93EF93FF93A0911539B09116390DB60A
:101E80000D920EB60D920E944718A0911539B0918F
:101E90001639CD91CDBFDD91DEBFFF91EF91DF917E
:101EA000CF91BF91AF919F918F917F916F915F91F2
:101EB0004F913F912F911F910F91FF90EF90DF90E5
:101EC000CF90BF90AF909F908F907F906F905F90DA
:101ED0004F903F902F901F900F900FBE0F9008953E
:101EE0000F920FB6F8940F921F9211242F923F92E7
:101EF0004F925F926F927F928F929F92AF92BF921A
:101F0000CF92DF92EF92FF920F931F932F933F9305
:101F10004F935F936F937F938F939F93AF93BF93F1
:101F2000CF93DF93EF93FF93A0911539B0911639BA
:101F30000DB60D920EB60D9294D60E944718A09140
:101F40001539B0911639CD91CDBFDD91DEBFFF912E
:101F5000EF91DF91CF91BF91AF919F918F917F9141
:101F60006F915F914F913F912F911F910F91FF9032
:101F7000EF90DF90CF90BF90AF909F908F907F9029
:101F80006F905F904F903F902F901F900F900FBEDB
:101F90000F901895FC010396818392832FEF3FEFFA
:101FA0002383348385839683878390871082089563
:101FB000FC01108611860895CF93DF939C01FB01ED
:101FC000DC011196CD91DC911297C283D3838C8171
:101FD0009D81848395838C819D81DC0112966D9314
:101FE0007C9313976C837D8320873187F9018081EF
:101FF0008F5F8083DF91CF910895CF93DF93EB01C3
:10200000488159814F3F2FEF520721F4FC01A781EE
:10201000B0850DC0DC0113961296ED91FC911397DB
:10202000208131814217530710F0DF01F5CF12965E
:10203000ED91FC911397EA83FB83C483D583AC8332
:10204000BD831296CD93DC93139788879987FC0103
:1020500020812F5F2083DF91CF910895CF93DF936D
:10206000FC01A085B185C281D381848195818C8357
:102070009D83C481D581828193818A839B831196BC
:10208000CD91DC911297CE17DF0731F48C819D81C1
:1020900011968D939C931297108611868C91815086
:1020A0008C93DF91CF9108951F93CF93DF93EC0131
:1020B000142F8C8D81110CC088819981892B09F096
:1020C00047C08A819B810E94E7191A821B8247C000
:1020D000411118C0482F50E08C819D810E946041C1
:1020E0002C8D8C819D81820F911D8C839D832A81F3
:1020F0003B818217930770F1888199818C839D833E
:1021000080E02DC0482F50E08E819F810E94604169
:102110002C8D30E03195219531098E819F81820F80
:10212000931F8E839F83688179818617970730F488
:102130008A819B81280F391F2E833F83123061F4DF
:102140008A8D882359F08A8D81508A8F80E007C05C
:1021500080E005C080E003C080E001C080E09A8D8F
:102160009F5F9A8FDF91CF911F910895FC01CB0162
:10217000448D4423A1F050E026813781240F351F80
:1021800026833783628173812617370720F02081E9
:10219000318126833783668177810C94604108956D
:1021A0000F931F93CF93DF93EC010FB6F8940F9228
:1021B0008E8D8823B1F08989882399F08E010F5E76
:1021C0001F4F03C08989882361F0C8010E94EC1861
:1021D00081110E9477198E8D81508E8F8E8D811185
:1021E000F1CF8FEF8E8F0F900FBE0FB6F8940F9236
:1021F0008D8D8823A9F08885882391F08E01085F52
:102200001F4F03C08885882359F0C801E5D7811185
:102210000E9477198D8D81508D8F8D8D8111F2CF18
:102220008FEF8D8F0F900FBEDF91CF911F910F9188
:102230000895CF93DF93EC010FB6F8940F92888145
:1022400099812C8D30E07B8D729FA001739F500D82
:102250001124FC01E40FF51FEA83FB831A8E8C83A3
:102260009D83421B530B840F951F8E839F838FEF9B
:102270008D8F8E8F61110AC08885882369F0CE0109
:102280000896AAD7813041F4D2DD06C0CE01089667
:1022900081DECE0141967EDE0F900FBE81E0DF91A0
:1022A000CF910895FF920F931F93CF93DF93082F41
:1022B000162FF42E6623C1F0869FC001112482964A
:1022C000E0DCEC01009721F415C0C883D98305C078
:1022D0009C012F5D3F4F288339830B8F1C8F61E05A
:1022E000CE01A7DFF8A206C081E290E0CADCEC01D3
:1022F000009759F7CE01DF91CF911F910F91FF9079
:102300000895AF92BF92CF92DF92EF92FF920F9318
:102310001F93CF93DF93CDB7DEB72597CDBFDEBF39
:102320008C016B014C835D83A22EB12C7C0188E073
:10233000E80EF11C0FB6F8940F92F801928D838D80
:10234000981718F0F2E0AF1215C04A2DB601C80177
:10235000ABDEF8019189992339F0C80141963CD749
:10236000813021F464DD02C0811161DD0F900FBE68
:1023700081E047C0EC81FD81EF2B21F40F900FBE6F
:1023800080E03FC0B11005C0CE0101966DD7BB24DF
:10239000B3940F900FBE52D40FB6F8940F92F80179
:1023A000858D8F3F09F4158EF801868D8F3F09F4D6
:1023B000168E0F900FBEBE016C5F7F4FCE0101964F
:1023C0005ED781111AC00FB6F8940F92F801928D62
:1023D0000F900FBEF801838D98130BC06C817D8127
:1023E000C701B3D6C801DCDEDCD48111A3CF1FDD69
:1023F000A1CFC801D5DED5D49DCFC801D1DED1D4BF
:1024000080E02596CDBFDEBFDF91CF911F910F9168
:10241000FF90EF90DF90CF90BF90AF9008951F9303
:10242000CF93DF93182F81E290E02BDCEC01009733
:10243000E9F01A821B82188219821C821D821E8278
:102440001F821A8E81E08B8F1C8E9FEF9D8F9E8F37
:1024500018A3CE0108969EDDCE0141969BDD20E0BB
:1024600040E050E060E070E0CE014BDFCE01DF9154
:10247000CF911F9108950F931F93CF93DF93EC019A
:102480008A019A8D8B8D981710F02230D1F4422F4B
:10249000CE010ADE8E8D8F3F79F48989882399F0E9
:1024A000CE01419699D6882381F00115110579F066
:1024B00081E0F80180830CC08E8D8F5F8E8F81E06C
:1024C00007C080E005C081E003C081E001C081E079
:1024D000DF91CF911F910F910895AF92BF92CF924C
:1024E000DF92EF92FF920F931F93CF93DF93CDB7BD
:1024F000DEB72597CDBFDEBF8C016B014C835D83BA
:10250000B22EA12C7C0181E1E80EF11C0FB6F894EB
:102510000F92F801828D882371F1E680F780B60171
:10252000C80124DEB11018C0F801828D8150828F5D
:1025300080819181892B29F40E94261BF8018283D6
:102540009383F8018085882391F0C801089644D6CA
:10255000813069F46CDC0BC0F801E682F782818976
:10256000882329F0C801419637D6811160DC0F908D
:102570000FBE81E053C04C815D81452B21F40F904B
:102580000FBE80E04BC0A11005C0CE0101966CD6F5
:10259000AA24A3940F900FBE51D30FB6F8940F92B4
:1025A000F801858D8F3F09F4158EF801868D8F3FD8
:1025B00009F4168E0F900FBEBE016C5F7F4FCE01E7
:1025C00001965DD6811126C00FB6F8940F92F801DE
:1025D000828D0F900FBE811119C0F8018081918109
:1025E000892B49F40FB6F8940F92F80182819381F8
:1025F00090D60F900FBE6C817D81C701A6D5C80112
:10260000CFDDCFD3811182CF12DC80CFC801C8DDEE
:10261000C8D37CCFC801C4DDC4D380E02596CDBF2C
:10262000DEBFDF91CF911F910F91FF90EF90DF9070
:10263000CF90BF90AF9008950F931F93CF93DF93E8
:10264000EC018A018A8D8823E1F0CE018FDD8A8D2D
:1026500081508A8F8D8D8F3F79F48885882399F0FA
:10266000CE010896B9D5882381F00115110579F0BE
:1026700081E0F80180830CC08D8D8F5F8D8F81E0AC
:1026800007C080E005C081E003C081E001C081E0B7
:10269000DF91CF911F910F9108950FB6F8940F928B
:1026A000FC01828D0F900FBE08952091743C3091F3
:1026B000753C232B51F0E8E7FCE321E030E0D90141
:1026C00040815181452B89F402C0A0E0B0E0AA0FFF
:1026D000BB1FAA0FBB1FAC58B34C6D937C931197D3
:1026E00012968D939C93139708952F5F3F4F3496C6
:1026F0002530310521F70895CF93DF93EC010FB614
:10270000F8940F928D8D8F3F09F41D8E8E8D8F3F23
:1027100009F41E8E0F900FBE8A8D811103C0CE0169
:1027200041963ED5CE013CDDDF91CF910895AF9229
:10273000BF92CF92DF92EF92FF920F931F93CF93AE
:10274000DF93A42EDB012C91222309F495C011966E
:10275000ED91FC9112970280F381E02D1196ED939B
:10276000FC9312977B01B3E0EB0EF11CEE15FF0515
:1027700029F422813381FB0121833283DB0111960D
:10278000ED91FC911297C680D78050E06894BB24ED
:10279000B1F8DB011196ED91FC9112972281338102
:1027A00011962D933C931297E216F30641F4159679
:1027B0002D913C91169711962D933C931297DB0126
:1027C0001196ED91FC911297C681D781252F30E0AB
:1027D000220F331FD901AA0FBB1FAA0FBB1FAA0FBD
:1027E000BB1FA21BB30BA80FB91FCD93DC9311978E
:1027F0009E01275E3F4F12962D933C93139729A17C
:1028000014962C9314971596AC9215972E891696BC
:102810002C931697E3E0AE1207C02C893D89232B39
:1028200019F01596BC9215972BA117962C93179714
:1028300018961D921D921D921C921B97EF89F88D80
:102840002081253A61F4319600E010E098010F5F95
:102850001F4F2F4F3F4F4191453AC9F303C000E04E
:1028600010E098011C960D931C931D975F5FCC158B
:10287000DD0509F08ECF01C050E0852FDF91CF91AB
:102880001F910F91FF90EF90DF90CF90BF90AF908E
:102890000895E091D438F091D5388081811107C036
:1028A0008FEF9FEF80930420909305200895E0918F
:1028B000D438F091D5380580F681E02D0680F78177
:1028C000E02D8281938180930420909305200895C8
:1028D000CF93DF93EC01E0911539F09116398283A3
:1028E00093838091B3389091B438C817D90760F4B6
:1028F00060911539709116398091D2389091D33802
:102900006E5F7F4F7ADB16C0609115397091163972
:102910008091D4389091D5386E5F7F4F6EDB809177
:10292000042090910520C817D90720F4C0930420F3
:10293000D0930520DF91CF9108952F923F924F922F
:102940005F926F927F928F929F92AF92BF92CF923F
:10295000DF92EF92FF920F931F93CF93DF933C018F
:102960005B014A012901C114D10431F4CA0189D99A
:102970006C01009709F4E0C08AE290E082D9EC0192
:10298000009789F0CF8AD88EA40165EA70E0C6016D
:102990000E9469412F88388CD5018C91898F8C9148
:1029A000811104C014C0C60191D9C6C0AE01465EF3
:1029B0005F4FF501319627E0CF013191DA013D9368
:1029C000AD01DC018C91882311F02150A9F718A2E8
:1029D000102F053008F014E01E8B1BA31CA26E0103
:1029E000B2E0CB0ED11CC601E3DACE010C96E0DAE0
:1029F000C887D98785E090E0811B91098C879D87E6
:102A0000CA8BDB8B1DA21EA21FA218A619A6C40189
:102A10000197A201B301820D931D59D9888399832F
:102A2000E114F10419F0F701C083D1830FB6F894D3
:102A30000F928091B5388F5F8093B53880911539AA
:102A400090911639892B09F039C0C0931539D0936C
:102A500016398091B538813009F03FC00F2EF8EE5D
:102A6000EF2EF8E3FF2EF02D0F2EF5E1AF2EF9E358
:102A7000BF2EF02DC7018EDAF9E0EF0EF11CEA143B
:102A8000FB04C1F78FED98E385DA86ED98E382DAEF
:102A900089EC98E37FDA80EC98E37CDA86EB98E3C4
:102AA00079DA8FED98E38093D4389093D53886ED1A
:102AB00098E38093D2389093D3380FC08091B13887
:102AC00081110BC0E0911539F091163986890817EC
:102AD00020F0C0931539D09316398091AD388F5FAF
:102AE0008093AD3889A38E899091B238981710F4ED
:102AF0008093B23890E09C01220F331F220F331FC6
:102B0000220F331F820F931FB6018851974C54DA5E
:102B10000F900FBE8091B138882351F0E0911539A4
:102B2000F09116398689801728F481D981E005C093
:102B300081E003C081E001C08FEFDF91CF911F9151
:102B40000F91FF90EF90DF90CF90BF90AF909F904C
:102B50008F907F906F905F904F903F902F9008954F
:102B60000F931F93CF93DF93EC010FB6F8940F925E
:102B7000009721F4C0911539D09116398E010E5F5E
:102B80001F4FC8016BDA8C899D89892B19F0CE0102
:102B90000C9664DAB80180EC98E30EDA8091BF38C5
:102BA0008F5F8093BF388091AD388F5F8093AD3851
:102BB0000F900FBE8091B138882379F0809115393C
:102BC00090911639C817D90711F431D906C00FB63C
:102BD000F8940F925EDE0F900FBEDF91CF911F91A0
:102BE0000F910895AF92BF92CF92DF92EF92FF9232
:102BF0000F93A12CB12CC12CD12CE12CF12C00E095
:102C000020E030E040E450E06FE670E28CE697E1CF
:102C100094DE813059F48AD5813041F4F894809360
:102C2000B1381092B3381092B438BFD80F91FF90DA
:102C3000EF90DF90CF90BF90AF9008958091AC3827
:102C40008F5F8093AC3808950FB6F8940F928091FF
:102C5000B3389091B4380F900FBE08958091B53875
:102C60000895DF92EF92FF920F931F93CF93DF931C
:102C70008091AC3881117EC08091B3389091B43886
:102C800001968093B3389093B438E090B338F090C5
:102C9000B438E114F104B1F48091D4389091D5386E
:102CA0002091D2383091D3382093D4383093D5380E
:102CB0008093D2389093D3388091AE388F5F8093D1
:102CC000AE38E7DD8091042090910520E816F906E2
:102CD00008F457C0D12C02C0DD24D394E091D4383D
:102CE000F091D5388081811107C08FEF9FEF8093DD
:102CF00004209093052046C0E091D438F091D53857
:102D00000580F681E02DC681D7812A813B81E216BC
:102D1000F30628F4209304203093052033C08E015D
:102D20000E5F1F4FC8019AD98C899D89892B19F094
:102D3000CE010C9693D92E898091B238821710F467
:102D40002093B23830E0C901880F991F880F991F6E
:102D5000880F991F820F931FB8018851974C2CD967
:102D6000E0911539F09116399E898689981708F0F7
:102D7000B3CFB4CF8091B0388F5F8093B038D12C6F
:102D800001C0D12C8091AF38882311F0DD24D39479
:102D90008D2DDF91CF911F910F91FF90EF90DF90DC
:102DA0000895DF92EF92FF920F931F93CF93DF93DB
:102DB0000FB6F8940F928091AC3881508093AC3864
:102DC0008091AC3881115DC08091B538882309F4B9
:102DD0005AC00F2EF9ECEF2EF8E3FF2EF02DDD2474
:102DE000D3942DC0E091CE38F091CF38C681D781F1
:102DF000CE010C9633D98E010E5F1F4FC8012ED91C
:102E00008E899091B238981710F48093B23890E080
:102E10009C01220F331F220F331F220F331F820FFB
:102E2000931FB8018851974CC7D8E0911539F0919C
:102E300016399E898689981710F0D092AF38F7011D
:102E400080818111CFCF8091B038882391F080911B
:102E5000B038882371F0C1E004DF8111C093AF382E
:102E60008091B03881508093B0388091B038811112
:102E7000F3CF8091AF38813041F40E94170F81E089
:102E800005C080E003C080E001C080E00F900FBE6D
:102E9000DF91CF911F910F91FF90EF90DF900895F8
:102EA000CF93DF93EC01009791F0C8DE8091B338A7
:102EB0009091B438C80FD91F809115399091163967
:102EC0000296CCD8CE0104DD6CDF811102C00E94D5
:102ED000170FDF91CF9108950F2EF8EEEF2EF8E344
:102EE000FF2EF02DC0ECD8E325C0A8DE188159DFF5
:102EF000112301F10FB6F8940F92E091C538F091CB
:102F0000C63806811781C8010296A8D88091B538C5
:102F100081508093B5388091BF3881508093BF38FD
:102F20000F900FBEF8018789908D0E94660EC80130
:102F30000E94660E8091BF388111D7CFF701808142
:102F40008230C0F30E94170FF5CFEF92FF920F93DC
:102F50001F93CF93DF93EC01F62E8A016FDE8091F1
:102F6000B538F81608F489C00F2EF5E0FF2EF02DC5
:102F7000E12CFA942F2D30E0B901660F771F660F10
:102F8000771F660F771F260F371FB9016851774CDF
:102F90002E2D30E0220F331FA901440F551F440F7F
:102FA000551F440F551FCA01821B930B41E08C0F24
:102FB0009D1FBDDBE80EF110DCCF6091D43870911D
:102FC000D5382E2D30E0220F331FC901880F991FED
:102FD000880F991F880F991F821B930B42E08C0F5B
:102FE0009D1FA5DBE80E6091D2387091D3382E2D4D
:102FF00030E0220F331FA901440F551F440F551F06
:10300000440F551FCA01821B930B42E08C0F9D1F7A
:103010008EDBE80E2E2D30E0220F331FA901440F66
:10302000551F440F551F440F551FCA01821B930B98
:1030300044E060EC78E38C0F9D1F79DBE80E2E2DC9
:1030400030E0220F331FA901440F551F440F551FB5
:10305000440F551FCA01821B930B43E066EB78E3D4
:103060008C0F9D1F64DBE80E0115110539F0F80186
:10307000108211821282138201C0E12C92DE8E2D09
:10308000DF91CF911F910F91FF90EF900895809164
:10309000AC38882321F081E08093AF3808951092F6
:1030A000AF388091B23890E0FC01EE0FFF1FEE0FB9
:1030B000FF1FEE0FFF1F8E0F9F1FFC01E851F74C03
:1030C0008081811117C08091B23881508093B238CD
:1030D0008091B23890E0FC01EE0FFF1FEE0FFF1F52
:1030E000EE0FFF1F8E0F9F1FFC01E851F74C8081F0
:1030F000882349F3E091B238F0E0CF01880F991F9F
:10310000880F991F880F991FE80FF91FE851F74C96
:10311000A181B28112960D90BC91A02DA183B283A2
:10312000CF010396A817B90731F412968D919C919F
:103130001397818392830180F281E02D86819781AC
:1031400080931539909316390895CF93DF93EB014F
:103150006091153970911639645F7F4F0E94FD0FA1
:10316000809115399091163902960E942E10CF3F0A
:103170008FEFD80759F460911539709116396E5F49
:103180007F4F86EB98E30E94DC0F07C08091B33835
:103190009091B4388C0F9D1F9BDBDF91CF910895E8
:1031A000CF93DF93EB016091153970911639645F0D
:1031B0007F4F0E94DC0F809115399091163902964D
:1031C0000E942E108091B3389091B4388C0F9D1FBF
:1031D0007FDBDF91CF9108950F931F93CF93DF9300
:1031E000DC011596ED91FC911697C681D7818E0171
:1031F000045F1F4FC8010E942E108091AC388111CE
:103200001CC00A501109C8010E942E108E8990918D
:10321000B238981710F48093B23890E09C01220FD6
:10322000331F220F331F220F331F820F931FB8014A
:103230008851974C0E94DC0F05C0B80189EC98E3D7
:103240000E94DC0FE0911539F09116399E8986892C
:10325000891720F481E08093AF3801C080E0DF91CE
:10326000CF911F910F9108952091AE38FC012083DA
:103270002091B3383091B4382183328308950FB64A
:10328000F8940F924091B3385091B438DB012D91EE
:103290003C912F3FBFEF3B0711F1E091AE38DC01CD
:1032A000FC91FE1739F01196ED91FC9112974E1793
:1032B0005F07B8F4DC011196ED91FC911297DA01E9
:1032C000AE1BBF0BA217B30770F4E41BF50B2E0F58
:1032D0003F1FFB0120833183C7DF80E005C080E012
:1032E00003C081E001C081E00F900FBE089581E02E
:1032F0008093AF3808958091B138882331F0809160
:10330000AC38811104C082E0089581E0089580E026
:1033100008950F931F93CF93DF93EC01009709F467
:1033200051C08E89E0911539F09116399689891727
:1033300008F048C02C853D8533235CF0E0911539B9
:10334000F0911639968925E030E0291B31092C8748
:103350003D8790E09C01220F331F220F331F220F65
:10336000331F820F931F8851974C2A853B8528175E
:10337000390711F58E010E5F1F4FC8010E942E10F4
:10338000E0911539F091163986898E8B9091B2387B
:10339000981710F48093B23890E09C01220F331FED
:1033A000220F331F220F331F820F931FB801885142
:1033B000974C0E94DC0F06C0E0911539F091163948
:1033C00086898E8BDF91CF911F910F9108950F9376
:1033D0001F93CF93DF93EC01009771F18CA1815083
:1033E0008CA32E899BA1291749F1811129C08E0137
:1033F0000E5F1F4FC8010E942E108BA18E8B25E0FF
:1034000030E0281B31092C873D879091B2389817FE
:1034100010F48093B23890E09C01220F331F220FEA
:10342000331F220F331F820F931FB8018851974C0F
:103430000E94DC0F81E005C080E003C080E001C095
:1034400080E0DF91CF911F910F9108956F927F924D
:103450008F929F92AF92BF92CF92DF92EF92FF92A4
:103460000F931F93CF93DF931F921F92CDB7DEB7B9
:103470008C01FC0110828091B53889832091B53888
:1034800030E0220F331FC901880F991F880F991F41
:10349000880F991F821B930B0E94410E7C0100979D
:1034A00009F4C3C0698140E050E04FDD89831A828E
:1034B0009A818981981708F0B5C00F2EF2E46F2E1B
:1034C000F02D0F2EF3E57F2EF02D0F2EF4E48F2E2E
:1034D000F02D0F2EF2E59F2EF02D6894BB24B5F849
:1034E0000F2EF4E7CF2EF0E2DF2EF02D8A8190E050
:1034F000880F991FFC01EE0FFF1FEE0FFF1FEE0F4D
:10350000FF1FE81BF90BEE0DFF1D8581823089F04E
:1035100018F4813031F00BC0833029F0843029F069
:1035200006C0A92C07C0A72C05C0A82C03C0A12C3D
:1035300001C0A62C8A8190E0880F991FFC01EE0F34
:10354000FF1FEE0FFF1FEE0FFF1FE81BF90BEE0D25
:10355000FF1D62817381C8010E947041F8010190D2
:103560000020E9F731978E2F801B873038F4F8015F
:10357000E80FF11DB0828F5F8730C9F7080F111D6A
:10358000F80110824A812A818A8150E0440F551F38
:10359000FA01EE0FFF1FEE0FFF1FEE0FFF1FE41BE0
:1035A000F50BEE0DFF1D94811F929F9330E0220FCB
:1035B000331FF901EE0FFF1FEE0FFF1FEE0FFF1F6E
:1035C000E21BF30BEE0DFF1D95859F9394859F9352
:1035D00090E0880F991FFC01EE0FFF1FEE0FFF1FF9
:1035E000EE0FFF1FE81BF90BEE0DFF1D86811F92EA
:1035F0008F931F92AF92DF92CF921F930F930E94EF
:10360000D141F80101900020E9F78F010150110923
:103610008A818F5F8A839A818981CDBFDEBF9817A7
:1036200008F464CFC7010E94660E0F900F90DF91DF
:10363000CF911F910F91FF90EF90DF90CF90BF90AF
:10364000AF909F908F907F906F90089580911539E3
:1036500090911639892B39F0E0911539F09116398E
:1036600084A18F5F84A380911539909116390895B4
:10367000FC0162837383808791874617570790F018
:10368000421B530B8485958548175907E0F4BF0109
:103690006E5F7F4F80911B3990911C390E94FD0F06
:1036A00080E008954217530718F46217730768F40F
:1036B000BF016E5F7F4F80911D3990911E390E942E
:1036C000FD0F80E0089581E0089581E008950FB630
:1036D000F8940F928091193990911A39892B19F524
:1036E00088E299E30E94CA0F8FE199E30E94CA0F12
:1036F00088E299E380931D3990931E398FE199E315
:1037000080931B3990931C3940E069E08AE00E9465
:1037100052118093193990931A39009721F063E878
:1037200070E20E9455130F900FBE0895AF92BF92A2
:10373000CF92DF92EF92FF920F93C9DF80911939F8
:1037400090911A39892B89F0A12CB12CC12CD12C44
:10375000E12CF12C03E020E030E040E450E068E8A8
:1037600070E281E79CE1E9D801C080E00F91FF9011
:10377000EF90DF90CF90BF90AF9008950F931F937D
:10378000CF93DF93CDB7DEB72997CDBFDEBFD90189
:10379000E0911939F0911A39309761F169834A83C0
:1037A0005B838C839D836630E0F4A5DD823061F419
:1037B00020E0A801BE016F5F7F4F80911939909181
:1037C0001A390E94811117C020E040E050E0BE018C
:1037D0006F5F7F4F8091193990911A390E94811142
:1037E0000AC020E0AD01BE016F5F7F4FCF010E9494
:1037F0003B1201C080E02996CDBFDEBFDF91CF91A3
:103800001F910F910895AF92BF92CF92DF92EF92E6
:10381000FF920F931F93CF93DF936C0115DA7C0116
:103820008091173990911839E816F90608F047C0C9
:103830002FC00580F681E02DA080B180C681D781A0
:103840008E010E5F1F4FC8010E942E10E989FA8970
:10385000CE0119958E858130D9F48C859D858A0D90
:103860009B1DA816B90660F48A839B83C887D987F5
:10387000B80180911D3990911E390E94FD0F08C03A
:1038800000E010E020E030E0A50160E0CE0176DF4E
:10389000E0911D39F0911E3980818111CACF80914C
:1038A0001B3990911C3980931D3990931E39E093F8
:1038B0001B39F0931C3981E0F601808302C0F601C8
:1038C0001082E0921739F0921839C701DF91CF9139
:1038D0001F910F91FF90EF90DF90CF90BF90AF902E
:1038E0000895CF93DF93CDB7DEB72A97CDBFDEBF64
:1038F000CE0101966C01A82EBD2CE0911D39F091EE
:103900001E398081882309F4B1C00580F681E02D3D
:10391000E080F18093D9C60176DF8C018981811125
:1039200044C00E151F0590F13CDAE0911D39F0916D
:103930001E390580F681E02D86809780C4010296AD
:103940000E942E10D4011E968C911E978130A1F4F6
:103950001C966D917C911D976E0D7F1D9701A8019E
:10396000C40186DE813041F400E010E020E030E068
:10397000A70160E0C40102DFD4015196ED91FC91F2
:103980005297C401199564C0E12CF12CB701601B5A
:10399000710B8091193990911A390E947C1301DAC8
:1039A000811156C00E94170F53C0FBD951C0EC8043
:1039B000FD80F70182859385892B21F0C70102964E
:1039C0000E942E10CE010A961EDF098110E00A30F7
:1039D000110508F03DC0F801EA5FFE4F0C94E03F8E
:1039E0002A813B81D7011C966D917C911D97620FB6
:1039F000731FAC01C7013CDE813051F5D7015196F0
:103A0000ED91FC915297C7011995F7018685813098
:103A1000F9F4448555858A819B81480F591F00E040
:103A200010E020E030E060E0C701A8DE11C06A814C
:103A30007B81D7011C966D937C931D97680F791F2E
:103A40009C01AC01C70114DE03C0C7010E94660ED1
:103A500020E040E050E06A2D7B2D80911939909153
:103A60001A390E946D128111A2CF47CFE7D8C60143
:103A7000CADE8C018981882309F486CF96CF0C9405
:103A8000410E08950C94660E089540E00C94521176
:103A90000895FB01BA01A9014F3F2FEF52076105BD
:103AA000710521F0769567955795479520E0BF0100
:103AB0000E94811190E0089520E00E943B1290E066
:103AC0000895FB01BA01A9014F3F2FEF520761058D
:103AD000710521F0769567955795479520E0BF01D0
:103AE0000E946D1290E008950E944D1390E0089599
:103AF000CF93DF93EC0181E00E940F129C01888339
:103B0000998381E090E0232B11F480E090E0DF9135
:103B1000CF910895CF93DF93EC0143E060E081E023
:103B20000E94521188839983009739F020E040E089
:103B300050E060E070E00E94811181E090E0DF9150
:103B4000CF9108954F3F2FEF52076105710521F086
:103B5000769567955795479520E060E070E0FC0109
:103B6000808191810E946D1221E030E0813011F05E
:103B700020E030E0C901089520E040E050E060E03E
:103B800070E0FC01808191810E94811121E030E090
:103B9000813011F020E030E0C901089557DC80E069
:103BA00090E008955BD828E2829FC0011124089517
:103BB0004F925F926F927F928F929F92AF92BF923D
:103BC000CF92DF92EF92FF920F2EF0E1CF2EF7E22D
:103BD000DF2EE12CF12CF02D44244A94542C320198
:103BE000812C912C5401C4018C0D9D1D0E94410E0D
:103BF000009759F426013701480C591C6A1C7B1C9C
:103C0000F694E794D794C79415C08C0C9D1CAE1CF9
:103C1000BF1CB501A4014C0D5D1D6E1D7F1D44151B
:103C200055056605770520F0F694E794D794C79478
:103C30000E94660E80E2C816D104E104F10498F6F1
:103C4000C501B401FF90EF90DF90CF90BF90AF908F
:103C50009F908F907F906F905F904F90089580E03D
:103C600090E0892B21F081E090E00E94000080E04C
:103C700090E0892B19F00E940000FFCF8EEF9FEF9C
:103C80000895AF92BF92CF92DF92EF92FF920F937F
:103C9000A12CB12CC12CD12C0E949D1421E030E02C
:103CA000813011F420E030E088279927821B930BA4
:103CB0000F91FF90EF90DF90CF90BF90AF9008955D
:103CC0000E942416880F991FBC0180E090E008959F
:103CD0000E9424169C013695279536952795A5ECCC
:103CE000B0E20E94E63F929582958F7089279F707F
:103CF0008927BC0180E090E00895CF92DF92EF9297
:103D0000FF920F931F93CF93DF931F921F92CDB714
:103D1000DEB780933339909334396093313970939F
:103D200032396B0125E0C20ED11CE894C0F8C89E60
:103D30008001C99E100DD89E100D1124C8019FDE70
:103D40008093353990933639892B09F44DC062E060
:103D500070E0809133399091343997DE8093373910
:103D600090933839892BC1F1A80160E070E080910F
:103D70003539909136390E9469418091333990915B
:103D80003439892BA1F1E12CF12C00E010E0E09115
:103D90003539F0913639EE0DFF1DE983FA83108233
:103DA0001182E981FA81E283F38320E030E0A90106
:103DB000BE016F5F7F4F809137399091383969DE4E
:103DC0000F5F1F4FEC0CFD1C8091333990913439FB
:103DD00008171907E0F20EC08091353990913639F5
:103DE00051DE8FEF9FEF08C08FEF9FEF05C080E09F
:103DF00090E002C080E090E00F900F90DF91CF91B3
:103E00001F910F91FF90EF90DF90CF900895CF9387
:103E1000DF931F921F92CDB7DEB719821A820E96DA
:103E2000209131393091323928173907E8F020E0F4
:103E300030E0A901BE016F5F7F4F809137399091CB
:103E400038393FDEE981FA81309789F082819381A8
:103E5000E817F90779F48081918101968083918335
:103E600089819A81049608C080E090E005C080E0D6
:103E700090E002C080E090E00F900F90DF91CF9132
:103E80000895CF93DF9300D0CDB7DEB719820097A6
:103E900051F19C01245031092A833B8320FD23C02A
:103EA000F9014281538124173507E9F4F901208192
:103EB000318121153105B9F02230310528F021502A
:103EC0003109208331830FC0FC01349710821182A5
:103ED000AE014F5F5F4FBE016E5F7F4F80913739FC
:103EE00090913839E9DD2396CDBFDEBFDF91CF91C8
:103EF0000895CF93DF931F921F92CDB7DEB700973F
:103F000051F19C012450310929833A8320FD23C0BB
:103F1000F9014281538124173507E9F4F901208121
:103F2000318121153105B9F02230310528F02150B9
:103F30003109208331830FC0FC0134971082118234
:103F400020E030E0A901BE016F5F7F4F80913739DB
:103F5000909138399EDD0F900F90DF91CF910895A9
:103F60008091373990913839BFCD0895CF93DF9341
:103F70001F921F92CDB7DEB769837A830097A9F0AD
:103F800020E030E0A901BE016F5F7F4FFC01848516
:103F900095857FDD21E030E0019711F420E030E0ED
:103FA00088279927821B930B02C08EEF9FEF0F90FB
:103FB0000F90DF91CF9108950F931F93CF93DF93CD
:103FC0007FDECB010E9465400E9462408F71907835
:103FD000992324F40197806E9F6F0196805E8093F1
:103FE0003C398AE399E396DD019731F5C1E4D9E3E1
:103FF00001E31AE304C06896C017D10779F062E0C4
:1040000070E08AE090E041DD8A879B87FE0131976E
:104010001082CE016DDD019771F311C08DE399E33C
:1040200079DD21E030E0019711F420E030E08827CD
:104030009927821B930B05C08FEF9FEF02C08FEF74
:104040009FEFDF91CF911F910F910895CF92DF9253
:10405000EF92FF920F931F93CF93DF93EFE3F9E378
:104060000FE21AE3EF01A181AA2399F0A081A11127
:1040700010C0C480D580E680F780C626D726E82603
:10408000F926C222D322E422F522CD28CE28CF2839
:1040900029F07896E017F10729F703C08E2F9D2F9E
:1040A00002C080E090E0DF91CF911F910F91FF90CF
:1040B000EF90DF90CF9008950F931F93CF93DF93EE
:1040C0001F921F92CDB7DEB78C0105C089819A81FE
:1040D000009709F00EDF20E030E0A901BE016F5F1C
:1040E0007F4FF80184859585ECDC019779F380E0BA
:1040F00090E00F900F90DF91CF911F910F91089555
:104100001F93CF93DF93182F44E650E060E070E0F8
:104110008DE399E317DD019709F047C080913939A4
:1041200090E001966AE070E00E94AB3FEC01CC0F9A
:10413000DD1FC80FD91FCC0FDD1FCC0FDD1FCC0F2B
:10414000DD1FC15CD64C4981411132C021C0EC0158
:10415000CC0FDD1FC80FD91FCC0FDD1FCC0FDD1F0B
:10416000CC0FDD1FC15CD64C4981442389F00196F8
:10417000BF010E94AB3F215031092115310539F7AC
:10418000413031F48DE399E3F7DC80E090E01AC030
:1041900091E099831E861F861883809339398DE3B9
:1041A00099E3EADC8C2F9D2F0DC080E090E00AC0DF
:1041B00001966AE070E00E94AB3F29E030E0EAE05F
:1041C000F0E0C5CFDF91CF911F9108958F929F921C
:1041D000AF92BF92CF92DF92EF92FF92CF93DF9395
:1041E0004B015C0169017A0180E08ADFEC010097F4
:1041F00079F08C829D82AE82BF82C886D986EA869B
:10420000FB865EDD688B798B8A8B9B8BCE0154DFBE
:10421000CE01DF91CF91FF90EF90DF90CF90BF90D4
:10422000AF909F908F900895CF93DF93EC0100970C
:10423000A9F089818823A9F044E650E060E070E0AD
:104240008DE399E37FDC019779F41982CE0134DFA5
:104250008DE399E391DC80E090E008C08EEF9FEF62
:1042600005C080E090E002C08DEF9FEFDF91CF911D
:104270000895FC0195819295969596959370868107
:104280008F70880F880F892B90E008958F929F92EE
:10429000AF92BF92CF92DF92EF92FF920F931F9354
:1042A0008A019B010150110921093109452B462B37
:1042B000472B49F1A82FB92F88248A94982C5401B0
:1042C0004D9175016401C426DD24EE24FF24C6014E
:1042D000880F991F880F991FFC01E057F14FC59077
:1042E000D590E590F49077276B2D5A2D492D4A01F2
:1042F0005B018C249D24AE24BF24015011092109A7
:104300003109F0F604C088248A94982C5401C50120
:10431000B40160957095809590951F910F91FF90D5
:10432000EF90DF90CF90BF90AF909F908F900895C7
:10433000CF93DF93EC010097B9F04885598560E091
:1043400070E00E96A3DF5ED0E885F985EC0FFD1FC7
:1043500066877787808B918B888599850496888777
:10436000998780E090E002C08EEF9FEFDF91CF91C0
:104370000895EF92FF920F931F93CF93DF9300D096
:104380001F92CDB7DEB78C01009751F1FC018085FB
:1043900091858430910538F1AC014450510960E0B9
:1043A00070E0C8010E9672DF2DD069837A838B830B
:1043B0009C83F801808591857C01F4E0EF1AF10877
:1043C0000A9644E050E0BE016F5F7F4F800F911F5F
:1043D0000E945341009751F4F801E086F18608C02D
:1043E0008EEF9FEF05C08EEF9FEF02C08EEF9FEF25
:1043F0002496CDBFDEBFDF91CF911F910F91FF902B
:10440000EF900895CF92DF92EF92FF920F931F9358
:10441000F62EEE24DD24CC24092F11272227332762
:104420000C291D292E293F296B017C01CC24EE2467
:10443000FF24FE2CED2CDC2CCC240C291D292E294C
:104440003F29DC01CB0188279927BB27892F9A2F89
:10445000AB2FBB27BC01CD01602B712B822B932B83
:104460001F910F91FF90EF90DF90CF900895CF9222
:10447000DF92EF92FF920F931F93F62EEE24DD242E
:10448000CC24092F1127222733270C291D292E2957
:104490003F296B017C01CC24EE24FF24FE2CED2C63
:1044A000DC2CCC240C291D292E293F29DC01CB0131
:1044B00088279927BB27892F9A2FAB2FBB27BC01B1
:1044C000CD01602B712B822B932B1F910F91FF90AD
:1044D000EF90DF90CF9008958091313A9091323AE9
:1044E000089580912F3A9091303A08958093883CB6
:1044F00063DD9C01009731F408D29C01009721F400
:1045000037C30895932F0895932F0895CF92DF9284
:10451000EF92FF92CF93DF936B017C01DC01CB0123
:1045200081719927AA27BB27892B8A2B8B2B11F501
:10453000D701C6018E7A9E7F892B8A2B8B2BE9F4BB
:1045400081E0DEDDEC010097D9F0D0FE0AC062E028
:1045500070E08AE090E099DA8E879F87892B19F4C2
:1045600012C01E861F86CC8ADD8AEE8AFF8A8C2FB7
:104570009D2F0BC080E090E008C080E090E005C077
:1045800080E090E002C080E090E0DF91CF91FF906A
:10459000EF90DF90CF900895CF93DF931F921F92FB
:1045A000CDB7DEB7009781F0FC018685978500972F
:1045B00071F09A01AB01BE016F5F7F4F82DA019704
:1045C00049F489819A8108C080E090E005C080E0CC
:1045D00090E002C080E090E00F900F90DF91CF91CB
:1045E0000895CF93DF931F921F92CDB7DEB7198244
:1045F0001A82009789F0FC012181213081F49A010F
:10460000AB01BE016F5F7F4F848595855ADA0197B4
:1046100049F489819A8108C080E090E005C080E07B
:1046200090E002C080E090E00F900F90DF91CF917A
:1046300008958F929F92AF92BF92CF92DF92EF92A6
:10464000FF920F931F93CF93DF93962E872ED82F31
:10465000C92F5A01680179014115510509F47BC040
:10466000892F81708295807F9D2F92959F70892BD5
:10467000A9D28C01009709F471C0DC01ED91FC9185
:10468000309709F46EC024813581232B09F46CC066
:104690002C2F26952F7130E08091883C90E02817D0
:1046A000390759F493FC46C090FE05C0C50140DEB1
:1046B000892B09F03FC092FC3DC0F50192868386AC
:1046C000D487C587C085D185F801A081B1811796AF
:1046D0008D919C911897009719F08C179D0750F1B8
:1046E0001496ED91FC911597A7019601B501CD01A6
:1046F00019950097F9F4D801ED91FC911197428535
:104700005385648575854F5F5F4F6F4F7F4F42873D
:10471000538764877587ED91FC9146A157A160A5E9
:1047200071A54C0F5D1F611D711D46A357A360A7A6
:1047300071A71CC0D801ED91FC9182899389A4894D
:10474000B5890196A11DB11D828B938BA48BB58B6E
:1047500086EF9FEF0BC086EF9FEF08C086EF9FEFBD
:1047600005C086EF9FEF02C086EF9FEFDF91CF91EC
:104770001F910F91FF90EF90DF90CF90BF90AF907F
:104780009F908F9008950F931F93FB010097D1F096
:104790003097D9F0DC0111966C9111976130C1F41A
:1047A00018966D917D918D919C911B9789019A012D
:1047B000AF013FDF31E020E0892B09F030E0832FAB
:1047C000922F08C080E090E005C080E090E002C039
:1047D00080E090E01F910F9108954F925F926F9249
:1047E0007F928F929F92AF92BF92CF92DF92EF9281
:1047F000FF920F931F93CF93DF93CDB7DEB7F601F0
:104800001286E0FC45C02701380194E14922552475
:1048100066247724452846284728E9F5E6FE02C0A5
:1048200091E0928764FB992790F935853E7F392B7B
:104830003587542F5295550F550F507C93859F7394
:10484000952B9387469546954F706295607F642BB4
:1048500064874091883C4F71440F31702F73907C76
:10486000292B2387982F9295990F990F907C832F4E
:10487000842B892B85876285738584859585950131
:104880008401AF01D6DE009741F08BEF9FEF05C0AA
:104890008EEF9FEF02C08BEF9FEFDF91CF911F91C3
:1048A0000F91FF90EF90DF90CF90BF90AF909F90CF
:1048B0008F907F906F905F904F9008958132910517
:1048C000F0F4FC01EE0FFF1FE80FF91FED5CF54C53
:1048D0002081213059F4FC01EE0FFF1F8E0F9F1F26
:1048E000FC01ED5CF54C8181928108958091933AB1
:1048F000813041F48091943A9091953A089580E006
:1049000090E0089580E090E0089583E6E3E3FAE321
:10491000DF011D928A95E9F780E090E00895CF933A
:10492000DF93EC01CB01209781F062E070E0ADD81D
:104930008E879F8721E030E0892B11F020E030E066
:1049400088279927821B930B02C08EEF9FEFDF9180
:10495000CF9108950097E1F06132E8F470E0FB0137
:10496000EE0FFF1FE60FF71FED5CF54C20812111C4
:1049700015C0FB01EE0FFF1F6E0F7F1FFB01ED5CEB
:10498000F54C8183928381E0808380E090E00895FC
:104990008EEF9FEF08958EEF9FEF08958CEF9FEFBE
:1049A00008950F931F93CF93DF93EA018901F901D3
:1049B000828582FF0EC08E8D9F8DA8A1B9A1019620
:1049C000A11DB11D8E8F9F8FA8A3B9A38BEF9FEF61
:1049D00028C080FF12C0C901CCDC892B71F08E8900
:1049E0009F89A88DB98D0196A11DB11D8E8B9F8BBE
:1049F000A88FB98F8AE99FEF14C0F801828583FFE1
:104A00000EC08E8D9F8DA8A1B9A10196A11DB11DCB
:104A10008E8F9F8FA8A3B9A38BEF9FEF02C080E07A
:104A200090E0DF91CF911F910F9108952FEF3FEF0D
:104A300040E050E0BC018091963A9091973A41D87D
:104A4000019719F08DEF9FEF089580E090E00895B1
:104A5000EF92FF920F931F930F2EF8E9EF2EFAE3D8
:104A6000FF2EF02D8B0120E030E0AC0160E970E218
:104A70008CEF95E206D921E030E0892B11F420E09B
:104A800030E088279927821B930B1F910F91FF908D
:104A9000EF9008950F931F93CF93DF938C01C091F4
:104AA000FD3AD091FE3A209771F04AE050E0B8010B
:104AB000888199810E947741892B29F00AA8DBA976
:104AC000C02D209791F7CE01DF91CF911F910F91CB
:104AD0000895A091FD3AB091FE3A109741F4809369
:104AE000FD3A9093FE3AFC0112AA13AA0895A81762
:104AF000B907B9F0D296ED91FC91D397309739F47C
:104B00000AC022A933A92115310531F0F9018E1708
:104B10009F07B9F70895FD0182AB93ABFC0112AA80
:104B200013AA08950F931F93CF93DF93182FEB01D0
:104B3000042F209799F0CB01CCDF113290F4812F14
:104B400090E0FC01EE0FFF1FE80FF91FE656F54C51
:104B5000C083D183028380E090E005C08EEF9FEF99
:104B600002C08EEF9FEFDF91CF911F910F910895BB
:104B700083E6EAE9FAE3DF011D928A95E9F780917D
:104B8000963A9091973A892B61F464E070E08AE05C
:104B900090E00E94451D8093963A9093973A892B16
:104BA00071F04FEF6AE370E28091883CBBDF4FEF1A
:104BB0006AE370E280E2B6DF80E090E008958FEF74
:104BC0009FEF089590E0FC01EE0FFF1FE80FF91F23
:104BD000E656F54C20813181232B11F0CF01089549
:104BE0008091FA3A9091FB3A892B19F08AEF9AE377
:104BF000089580E090E00895CF93DF9300D000D037
:104C0000CDB7DEB78091963A9091973A892B21F4EF
:104C100080E090E00E94B015CE01019607DF892B5D
:104C2000D9F7CB80DC80CD82DE82D6011C969C91A8
:104C30001C9792959F701D968C9181708295807FB4
:104C4000892B482F50E02091883C30E042175307D1
:104C500021F18F3111F1B6DF009759F0DC01ED91B0
:104C6000FC9189819A81E817F90731F481858111D6
:104C700003C0C6013ED9D0CFF60162857385848515
:104C8000958500E010E09801A601D3DC892B09F49A
:104C9000C3CF8D819E812DD9BFCFD6011B969C910C
:104CA0001B9792959695969593701C968C918F7004
:104CB000880F880F892B90E001DE8C01009709F4A2
:104CC000B5C0FC01648975898689978970FFBDC06C
:104CD0002D813E8149815A8164DE992324F48D819E
:104CE0009E8107D999CF20E030E0A901BE016B5F1A
:104CF0007F4FD8011E968D919C911F970E94491D50
:104D0000019709F489CF8D819E81F3D885CF8D815C
:104D10009E81EFD881CF2D813E8149815A81F80152
:104D200064897589868997893CDE992324F48D816D
:104D30009E81DFD871CFED81FE819585892F807CA2
:104D40002F2D2F73F22EF82A8091883C8F71880FB7
:104D50002F2D217CF22EF82A969594FB882780F936
:104D600080FBF0F88385482F4F73469546959295C2
:104D7000907F492B982F92959695969593703485B0
:104D80003F70330F330F392B8295880F880F807C4B
:104D9000382B228562857385848595855F2D16DA8B
:104DA0006C01009721F48D819E81A3D835CFD80165
:104DB0001E968D919C911F97F60186879787549632
:104DC0008D919D910D90BC91A02D848B958BA68B80
:104DD000B78B12C02D813E8149815A81D6015496EC
:104DE0006D917D918D919C915797DBDD992324F4F2
:104DF0008D819E817ED810CF8D819E81FC01228580
:104E000021FF10C0E981FA8146895789608D718D33
:104E10004F5F5F4F6F4F7F4F468B578B608F718F08
:104E200068D8FACEBC01C6018AD3F6CEED81FE81E8
:104E3000628573858485958520E03FEF4FEF5FE3C2
:104E400005D96C01009731F662CFED81FE81628554
:104E500073858485958520E03FEF4FEF5FE3F6D8BB
:104E60006C01009709F0B6CF56CF0F931F93011531
:104E7000110519F40E94491D03C0A8010E945C1D80
:104E8000019719F480E090E002C087EF9FEF1F9137
:104E90000F910895AF92BF92CF92DF92EF92FF925F
:104EA0000F931F93CF93DF9300D01F92CDB7DEB740
:104EB0006C017B015A01009709F450C0611571051E
:104EC00041F44115510511F414D848C00E94411F06
:104ED00045C069837A838B839C838A0120E030E01C
:104EE000A901BE016F5F7F4F8091963A9091973AEA
:104EF000BCDF892BB1F0F701828D938DA48DB58D28
:104F00000196A11DB11D828F938FA48FB58FAB2801
:104F100021F4C6010E94791F21C0C6010E94411FD1
:104F20001DC0F70146855785608971894F5F5F4FC6
:104F30006F4F7F4F46875787608B718BF6012085B7
:104F40003185F70182A593A5A4A5B5A5820F931F6E
:104F5000A11DB11D82A793A7A4A7B5A72496CDBF75
:104F6000DEBFDF91CF911F910F91FF90EF90DF9007
:104F7000CF90BF90AF90089525DEFC018281089507
:104F80000F931F93CF93DF93EB018E85811155C152
:104F90008F85833009F46DC030F4813069F0823040
:104FA00009F44FC045C1853009F4F1C008F4D8C0F8
:104FB000863009F406C13CC144E150E064E970E286
:104FC000CE018E5B9F4F0E948541FE01EB5AFF4F41
:104FD00010828CE0ECE9F0E2DE01AA5ABF4F0190AA
:104FE0000D928A95E1F7FE01EF59FF4F108289E09B
:104FF000E8EAF0E2DE01AE59BF4F01900D928A95CA
:10500000E1F7FE01E659FF4F108266DA44E150E015
:10501000BC01CE0140960E9485411BA262DA4EE19E
:1050200050E0BC01CE0184960E948541FE01EF5BF9
:10503000FF4F10828DE590E08887998780E090E0AF
:10504000F9C0CB01429626DD009749F04989BC01A1
:10505000888968DD892B31F08EEF9FEF05C08EEFD8
:105060009FEF02C080E090E02FE030E02887398792
:10507000E1C0CB0140960EDD8C01009709F469C0B8
:10508000FC016285738584859585BCD96B8F7C8F87
:105090008D8F9E8FF8016685778580899189B2D939
:1050A0006F8F78A389A39AA3F80162897389848991
:1050B0009589A8D96BA37CA38DA39EA3F8016689CB
:1050C0007789808D918D9ED96FA378A789A79AA79C
:1050D000F801628D738D848D958D94D96BA77CA713
:1050E0008DA79EA7F801668D778D80A191A18AD9A1
:1050F0006FA778AB89AB9AABF80162A173A184A1C9
:1051000095A180D96BAB7CAB8DAB9EABF80166A152
:1051100077A180A591A576D96FAB78AF89AF9AAF0B
:10512000F80162A573A584A595A56CD96BAF7CAF7A
:105130008DAF9EAFF80166A577A580A991A962D928
:10514000FE01FF96608371838283938380E090E009
:1051500002C08EEF9FEF25E330E0288739876AC0D1
:10516000688979898A899B894DD9688B798B8A8BE3
:105170009B8B4C89493C40F450E0CE0145960E94FF
:10518000604180E090E056C08EEF9FEF53C0688989
:1051900079898A899B8936D9DC01CB01888B998BE7
:1051A000AA8BBB8B4C89493C48F450E0BE016B5E36
:1051B0007F4F0E94604180E090E03CC08EEF9FEF07
:1051C00039C0688979898A899B8951D9688B798B9B
:1051D0008A8B9B8B6C897D898E899F8948D96C8B42
:1051E0007D8B8E8B9F8B88899989AA89BB89892B16
:1051F0008A2B8B2B21F0CE0140960E94340BCE01DE
:1052000040960E94330B688979898A899B89FAD8EC
:10521000688B798B8A8B9B8B6C897D898E899F8922
:10522000F1D86C8B7D8B8E8B9F8B80E090E002C0E1
:105230008EEF9FEF2FEF2E8702C08EEF9FEFDF9153
:10524000CF911F910F910895AF92BF92CF92DF92AD
:10525000EF92FF920F931F93CF93DF938C01EB019B
:1052600008D88730910508F090C0FC01E05FFE4F40
:105270000C94E03FBE01C80183DE892B09F489C08C
:10528000CE010E94791F92C00E94D21D7C010E9413
:105290003F1D5C010E94CE1DB701C5010E949441D3
:1052A0006C01181619060CF074C0E12CF12C209733
:1052B00041F484EC90E00E94071FEC01009709F490
:1052C00075C0A6014E195F09453C510514F044EC28
:1052D00050E048875987B5016E0D7F1DCE010E96AF
:1052E0000E94604188859985E80EF91E20E030E033
:1052F000A901BE01C80147DA892B19F4CE010E9429
:10530000791FEC14FD040CF051C0C0E0D0E0CFCF09
:105310000E94D81D77D86E877F87888B998B84E011
:1053200090E08887998735C06E857F8588899989BF
:105330009ED8673070488740904821F0CE010E9487
:10534000791F34C00E942F1ECE010E94791F2EC0EB
:105350000E94B01FBC01882777FD8095982F52D8F6
:105360006E877F87888B998B84E090E08887998708
:1053700010C00E94681E46D86E877F87888B998BE5
:1053800084E090E08887998704C0CE010E94791F4D
:105390000DC0209759F020E030E0A901BE01C801FE
:1053A000F2D9892B19F4CE010E94791FDF91CF9198
:1053B0001F910F91FF90EF90DF90CF90BF90AF9033
:1053C0000895CF92DF92EF92FF92CF93DF93EB019C
:1053D00069017A019C8592959F708D858170829577
:1053E000807F892BC9DD8F3F51F49C8592959F70FA
:1053F0008D8581708295807F892B8E830AC09C85E4
:1054000092959F708D8581708295807F892BB4DD08
:105410008E836A857B858C859D850E9402226A87A2
:105420007B878C879D87888599850496888799874F
:105430001F821982A601BE0180E090E00E94210B2C
:10544000019619F085EF9FEF02C080E090E0DF91B8
:10545000CF91FF90EF90DF90CF9008950F931F931F
:10546000CF93DF93EC018B01009779F188859985C3
:1054700004978C3F910588F0E8E2F0E28081918109
:10548000A281B3810196A11DB11D80839183A28366
:10549000B383CE010E94411F18C088879987C093AB
:1054A000FF3AD093003B6A857B858C859D850E9461
:1054B00037226A877B878C879D87A80166E070E228
:1054C0008091FF3A9091003BE5DCDF91CF911F91F5
:1054D0000F910895CF92DF92EF92FF920F931F9357
:1054E000E82FCB019A010F2EFEE2CF2EFAE2DF2E3B
:1054F000F02D0F2EFAE0EF2EF12CF02D0AE010E047
:105500004E2F60E070E00E94FE0A019631F486E0C2
:1055100090E2DFDA80E090E002C085EF9FEF1F911C
:105520000F91FF90EF90DF90CF900895CB0140E076
:1055300050E06AE370E2AEDC80E090E008950F9303
:105540001F93CF93DF931F921F92CDB7DEB789834E
:105550009A838B010E94B61F992324F4C8010E94EC
:10556000791F19C0E981FA8186859785009799F09E
:1055700020E030E0A901BE016F5F7F4F0E94491D0E
:10558000019729F089819A810E94142104C0E98140
:10559000FA81168617860F900F90DF91CF911F9199
:1055A0000F910895AF92BF92CF92DF92EF92FF9248
:1055B0000F930E94BB3866E570E083E090E00E94A4
:1055C0007D1E86E00E9476224DE450E060E070E0AF
:1055D00086E080DF41E066E070E281E0A3DA61E02E
:1055E00070E08FEF90E034DAA12CB12CC12CD12CDB
:1055F000E12CF12C00E020E030E040E051E06AEBEB
:1056000070E281EF99E00E949D1420E030E040E0DC
:1056100052E062EC70E287EC9FE20E949D140E94CF
:10562000F21580E090E00F91FF90EF90DF90CF9027
:10563000BF90AF9008958F929F92AF92BF92CF92FA
:10564000DF92EF92FF920F931F93CF93DF93CDB72B
:10565000DEB76497CDBFDEBF7C011092DA3D1092B9
:10566000DB3D81E08093033B80ED97E00E94501783
:105670008091033B8111FFCF00E816E06894DD24A0
:10568000D3F8D8011796DC920E949F0B0E94330C2E
:10569000F801D7828DE1EBECF0E28E010F5F1F4F36
:1056A000D80101900D928A95E1F78091893C909103
:1056B0008A3CB8010E960E947041C090893CD090FF
:1056C0008A3CF80101900020E9F73197E01BF10BCB
:1056D000D6011896ED93FC931997F7014385842F13
:1056E000829586958695837024852F70220F220FD0
:1056F000282B4F73658566956F710F2EF8EE8F2EF0
:10570000F3E09F2EA12CB12CF02DE12CF12C870180
:1057100082E063D88AE090E00E94501780E090E039
:105720006496CDBFDEBFDF91CF911F910F91FF90A7
:10573000EF90DF90CF90BF90AF909F908F900895A3
:105740002F923F924F925F926F927F928F929F9291
:10575000AF92BF92CF92DF92EF92FF920F931F937F
:10576000CF93DF93CDB7DEB7A297CDBFDEBF89A3BE
:105770009AA3FE0131968EE1DF011D928A95E9F729
:1057800088E0E0E8F6E0878360E080E098E0E5D438
:10579000E5E5F0E43197F1F700C0000080E1E8EEC4
:1057A000F0E28E010F5F1F4FD80101900D928A9594
:1057B000E1F78091893C90918A3CB8010E960E9455
:1057C0007041C090893CD0908A3CF8010190002043
:1057D000E9F73197E01BF10BD6011896ED93FC9396
:1057E0001997E9A1FAA14385842F8295869586951C
:1057F000837024852F70220F220F282B4F7365850D
:1058000066956F710F2EF4E68F2E912CA12CB12C82
:10581000F02DE12CF12C870182E00E94ED2385E53B
:1058200090E40197F1F700C00000612C712C212C4D
:10583000312C2101DE011196AF8FB8A3C201B10155
:105840000E94CA359F938F937F926F92A8EFB0E228
:10585000BF93AF93F8A1FF938F8D8F930E94D14197
:105860008091893C90918A3CBE016F5F7F4F0E967C
:105870000E947041C090893CD0908A3CEF8DF8A185
:1058800001900020E9F73197AF8DB8A1EA1BFB0B1F
:10589000D6011896ED93FC931997E9A1FAA14385D7
:1058A000842F829586958695837024852F70220F8C
:1058B000220F282B4F73658566956F710F2EF4E6C6
:1058C0008F2E912CA12CB12CF02DE12CF12C8701E5
:1058D00082E00E94ED238AE290E20197F1F700C096
:1058E000000092E0290E311C411C511CA5E06A0EFB
:1058F000711CCDBFDEBF6114F8E27F0609F09ECFB8
:1059000065E080E098E029D480E090E0A296CDBFE9
:10591000DEBFDF91CF911F910F91FF90EF90DF904D
:10592000CF90BF90AF909F908F907F906F905F903F
:105930004F903F902F9008952F923F924F925F92F9
:105940006F927F928F929F92AF92BF92CF92DF928F
:10595000EF92FF920F931F93CF93DF93CDB7DEB7F4
:10596000AC97CDBFDEBF8BA79CA7FE0139968EE119
:10597000DF011D928A95E9F760E080E098E0EDD3C1
:10598000EBE6F0E53197F1F7000088E0E0E8F6E0BB
:1059900087837E01F9E0EF0EF11C80E1E8EEF0E292
:1059A000D70101900D928A95E1F78091893C909101
:1059B0008A3CB7010E960E947041C090893CD090FD
:1059C0008A3CF70101900020E9F73197EE19FF09B1
:1059D000D6011896ED93FC931997EBA5FCA543858A
:1059E000842F829586958695837024852F70220F4B
:1059F000220F282B4F73658566956F710F2EFFE080
:105A00008F2E912CA12CB12CF02DE12CF12C8701A3
:105A100082E00E94ED23412C512C320180E098E17C
:105A2000A0E0B0E08FA398A7A9A7BAA71E0199E0AC
:105A3000290E311C6FA178A589A59AA50E94FC3575
:105A400029833A834B835C836D837E838F8398871E
:105A500069817A818B819C81CD80DE80EF80F884A2
:105A60009B01AC010E94943B4B015C01A701960194
:105A7000C701B6010E94943B9B01AC01C501B40172
:105A80000E942C3A0E94543BD101EEE11D92EA950E
:105A9000E9F720E030E040E251E40E94943B0E94AC
:105AA000903A7F936F93D301C201772024F4815001
:105AB0009E4FAF4FBF4F072E79E0B595A7959795AD
:105AC00087957A95D1F7702D9F938F93A8EFB0E2C9
:105AD000BF93AF933F922F920E94D1418091893C16
