:1000000085C30000A9C30000A7C30000A5C300006A
:10001000A3C30000A1C300009FC300009DC3000054
:100020009BC3000099C3000097C3000095C3000064
:1000300093C3000091C3000013C600008DC30000ED
:100040008BC3000089C3000087C3000085C3000084
:100050000C94D52581C300007FC300007DC3000040
:100060007BC300000C945F230C94672475C30000CD
:1000700073C3000071C300006FC300006DC30000B4
:100080006BC3000069C3000067C3000065C30000C4
:1000900063C3000061C300005FC300005DC30000D4
:1000A0005BC3000059C3000057C3000055C30000E4
:1000B00053C300006AC4000033C400004DC30000F5
:1000C0004BC3000049C3000047C3000045C3000004
:1000D00043C3000041C300003FC300003DC3000014
:1000E0003BC3000039C300000C940F240C942D2551
:1000F00033C3000031C300002FC300002DC3000034
:100100002BC3000029C3000027C3000025C3000043
:1001100023C3000021C300001FC300001DC3000053
:100120001BC3000019C3000017C3000015C3000063
:1001300013C3000011C300000FC300000DC3000073
:100140000BC3000009C3000007C3000005C3000083
:1001500003C3000001C30000FFC20000FDC2000095
:100160000C94B7230C94CA24F7C20000F5C2000017
:10017000F3C20000F1C20000EFC20000EDC20000B7
:10018000EBC20000E9C20000E7C20000E5C20000C7
:10019000E3C20000E1C20000DFC20000DDC20000D7
:1001A000DBC20000D9C20000D7C20000D5C20000E7
:1001B000D3C20000D1C20000CFC20000CDC20000F7
:1001C000CBC20000C9C20000C7C20000C5C2000007
:1001D000C3C20000C1C20000BFC20000BDC2000017
:1001E000BBC20000B9C20000B7C20000B5C2000027
:1001F000B3C20000B1C20000AFC20000971D261EAE
:10020000A11DE51DF11D051E161E00000000038343
:100210006BF2F7703BE1F4F350131F979AC71C146D
:10022000F135E8E7A126EB64CAD4CF58D98ACCDBF4
:10023000B2783828E26B3BAB8999D0CF434DD34C91
:1002400028BF27BF78AC243C135E6FC75E106C4498
:1002500035E298B765F19B340E037050C4D773D361
:10026000AF258720FF3684A394C4A09F879AA31C40
:10027000EC6857EFBC7B546CD789BF081D5DBC8B05
:1002800076AF487826BC4BFB4D4EDE8EBD20DD0D93
:10029000D6D229FE86C12A7DED33C11927E7C29A3D
:1002A0004C1536691C0635EA77F411D664AA125546
:1002B0000F58E6A65F4BE52534B90E41FE6D0DC221
:1002C000959FF931C58CFAB2AE7EB149E330B2CA1E
:1002D00088C24639D8D145BAB323AEDE79F7AD5DD1
:1002E000120559AE42165A2D29E47E113ABA7D9272
:1002F00051488961015B8AE26AA96186A07D620535
:10030000CB8F96F69B9C9575F06EBC1D7B41BF9E76
:1003100010B34B6D40A048EE2B52A38AE186A00992
:100320008A7454FADA675779B1957345A2CB70C6CF
:10033000C9398435992A87B6F2D86CD2380C6F51F6
:1003400053FE9BA203ED9821681FD3DA2551D059A3
:100350004EA324AA1EB027297542CC4DBF96CFCEFE
:10036000D4643B3D847738BEEF851C82FCDB1F01E3
:100370009729EBF2C73AE871ACC80315661C0096E2
:100380000DEEF4655DFDF7E6360F6293C661611010
:10039000AD9395E3FD80966096727D045CA67E87A2
:1003A00037548A74674789F70CB5ADCB1FEBAE485D
:1003B00074195ABB240A59384FF8B25C852CB1DF46
:1003C000EEDE452CBECD46AFD53F0D5498710ED70D
:1003D000F383FA24A390F9A7C86212C302B61140AE
:1003E0006944E5B33957E63052A5C20C41FBC18FD1
:1003F0002A09357C7A1A36FF11E8DD9BDB3CDE18D2
:10040000B0CE2AEBE0DD29688B2F783BF6827BB8F3
:100410009D708F4BCD638CC8A69167AC6C45642FE3
:1004200007B790DC57A4935F3C56B7632F08B4E03E
:1004300044FA401314E943907F1BA8F4B5CFAB777F
:10044000DE3D5F848E2E5C07E5DC17FCA892147FEE
:10045000C360E08C9373E30FF881086B32550BE8AF
:1004600059A7FF1B09B4FC986246D8A47118DB2772
:100470001AEA2FD44AF92C57210BC733EBDFC4B04B
:10048000802D3043D03E33C0BBCCA6B54BA2A536A1
:10049000205051C5704352461BB1B922D165BAA153
:1004A000BA974E52EA844DD1817669ED92286A6EF0
:1004B000F9DA9E9DA9C99D1EC23B767A08EF75F9AF
:1004C000631D810A330E828958FCC97215B2CAF1C4
:1004D0007E403E022E533D8145A1D6E58F75D566FF
:1004E000E4872195B4942216DF66062ACC3805A944
:1004F000A7CAF15AF7D9F2D99C2B19BD56FF1A3E5B
:100500003D0DEECD6D1EED4E06ECC4268DC3C7A588
:10051000E6313356B62230D5DDD0DBB11704D83200
:100520007CF62CC12CE52F4247170B7E544908FD61
:100530003FBBFC0E6FA8FF8D045A14E9CE8E176ADC
:10054000A57CE399F56FE01A9E9DABE1D3D3A86239
:10055000B8215C91E8325F1283C0B4764914B7F5D4
:1005600022E6430672F54085190764B90A59673ACD
:1005700061AB93C931B8904A5A4A7B2E909E78ADB0
:10058000FB6C8C5EAB7F8FDDC08D1AA830E3192B1E
:100590005B11EDD80B02EE5B60F0053FAA2406BCB0
:1005A000C1D6F24F91C5F1CCFA37D5F0E969D673CF
:1005B000829B2280D2882103B97ACA6773AEC9E4CC
:1005C000185C3D17484F3E9423BD756F6EF376EC73
:1005D0000501821F5512819C3EE06AF8F434697B64
:1005E0009FC69D88CFD59E0BA427BA37B779B9B4DB
:1005F000DC8B4D478C984EC4E76AA5A02DBEA62380
:10060000464C52D0165F51537DAD6E616E00696EDF
:10061000660000407A10F35A00A0724E18090010CC
:10062000A5D4E80000E87648170000E40B54020067
:1006300000CA9A3B000000E1F50500008096980092
:10064000000040420F000000A086010000001027BB
:1006500000000000E803000000006400000000004B
:100660000A00000000000100000000002C76D8887D
:10067000DC674F0823DFC1DFAE59E1B1B796E5E390
:10068000E453C63AE651997696E8E6C28426EB89A9
:100690008C9B62ED407C6FFCEFBC9C9F40F2BAA546
:1006A0006FA5F490055A2AF75C936B6CF9676DC1DE
:1006B0001BFCE0E40D47FEF520E6B500D0ED902EE2
:1006C0000300943577050080841E080000204E0A40
:1006D000000000C80C333333330F986E128311417E
:1006E000EF8D2114893BE65516CFFEE6DB18D18449
:1006F0004B381BF77C1D901DA4BBE4242032847270
:100700005E228100C9F124ECA1E53D2711241FBE22
:10071000CFEFCDBFDFE3DEBF00E00CBF18BE19BED8
:100720001ABE1BBE11E2A0E0B0E2ECE2FAE500E086
:100730000BBF02C007900D92A430B107D9F71BBEC2
:100740002FE3A4E0B1E201C01D92AC37B207E1F79C
:100750000E94381F0C94142D53CC60E070E0CB0144
:100760000E94ED167C0160E20E9411196AE070E0BF
:10077000C7010E94F61863E08AE00FD48093BD3E63
:100780009093BE3ECC24C3946894DD24D1F840E11C
:1007900057E260E070E0C7010E9433178C010097B8
:1007A000B1F33CC0C8010E94A01580319105A1F0B1
:1007B0008131910501F10F9769F560E070E0FB016F
:1007C0001082C183D28320E04AE050E08091BD3E98
:1007D0009091BE3E2ED422C060E070E0FB01C0824A
:1007E000C183D28320E04AE050E08091BD3E9091E9
:1007F000BE3E1FD413C060E070E0FB01D082C18315
:10080000D28320E04AE050E08091BD3E9091BE3E10
:1008100010D404C0BE01C8010E94811D4AE050E00E
:1008200060E070E0C8010E945817EC01009709F0E1
:10083000B9CFC8010E947B15AACFCF93DF93CDB764
:10084000DEB7CA50D140CDBFDEBF80910F3F8130AF
:1008500049F580910C3F8823E1F0ECE0FFE38081D3
:1008600090E089879A878081882399F0FE013B96E2
:1008700080E090E04CE05FE3DC01A154B14C1496C1
:100880002C9121930196DA012C9130E08217930785
:100890009CF3E091633FF091643F60E070E0CE0133
:1008A00001961995C65FDE4FCDBFDEBFDF91CF91B8
:1008B0000895CF92DF92CF93C42F40E460EA74E0B2
:1008C00081E19FE30E9426214DE154E060EA74E05B
:1008D0008FEB9EE30E944C2240E46C2F8FEB9EE353
:1008E0000E945D22C092633FD092643F8FEF9FEFE2
:1008F000CF91DF90CF900895AB01465F5F4FFB0132
:100900002085668181E19FE30E949721882319F069
:100910008FEF9FEF089581E090E008950895089586
:100920001F920F920FB60F92112408B60F9218BEA5
:1009300009B60F9219BE0BB60F921BBE2F933F93B1
:100940004F935F936F937F938F939F93AF93BF93D7
:10095000EF93FF9381E19FE30E943322FF91EF9198
:10096000BF91AF919F918F917F916F915F914F91C7
:100970003F912F910F900BBE0F9009BE0F9008BEB4
:100980000F900FBE0F901F9018951F920F920FB6E9
:100990000F92112408B60F9218BE09B60F9219BE15
:1009A0000BB60F921BBE2F933F934F935F936F93A2
:1009B0007F938F939F93AF93BF93EF93FF938FEBAF
:1009C0009EE30E942C23FF91EF91BF91AF919F91E5
:1009D0008F917F916F915F914F913F912F910F90E8
:1009E0000BBE0F9009BE0F9008BE0F900FBE0F9068
:1009F0001F901895CF93DF93EC01DDD64091042131
:100A0000509105219E01240F351F28358BE13807B1
:100A100058F44217530758F4EA01CA5FDE4D209399
:100A200004213093052105C0C0E0D0E002C0C0E041
:100A3000D0E095D7CE01DF91CF9108950895209110
:100A400004213091052188E59BE1821B930B0895D9
:100A500031E1FC013083319722E220833197A3E317
:100A6000A0833197608331977083319710823197DB
:100A70001082319760E8608331971082319762E08D
:100A80006083319763E06083319764E060833197DE
:100A900065E06083319766E06083319767E060834B
:100AA000319768E06083319769E06083319760E156
:100AB000608331973083319732E13083319733E16E
:100AC0003083319734E13083319735E1308331978A
:100AD00036E13083319737E13083319738E1308325
:100AE000319739E13083319730E23083319731E209
:100AF000308331972083319723E2208331974083DD
:100B000031975083319726E22083319727E2208363
:100B1000319728E22083319729E22083319720E31F
:100B20002083319721E320838797089565E080E053
:100B300098E00E940E2183EF91E0E0E0F8E086A3C8
:100B400097A361E080E098E00E941A21E0EAF0E0DB
:100B5000828181608283A091D13CB091D23CCD91C1
:100B6000CDBFDD91DEBFFF91EF91DF91CF91BF91BE
:100B7000AF919F918F917F916F915F914F913F9135
:100B80002F911F910F91FF90EF90DF90CF90BF902A
:100B9000AF909F908F907F906F905F904F903F901D
:100BA0002F901F900F900FBE0F90089581E0089531
:100BB0000F920FB6F8940F921F9211242F923F922A
:100BC0004F925F926F927F928F929F92AF92BF925D
:100BD000CF92DF92EF92FF920F931F932F933F9349
:100BE0004F935F936F937F938F939F93AF93BF9335
:100BF000CF93DF93EF93FF93A091D13CB091D23C80
:100C00000DB60D920EB60D92A2D7A091D13CB09127
:100C1000D23CCD91CDBFDD91DEBFFF91EF91DF9151
:100C2000CF91BF91AF919F918F917F916F915F9184
:100C30004F913F912F911F910F91FF90EF90DF9077
:100C4000CF90BF90AF909F908F907F906F905F906C
:100C50004F903F902F901F900F900FBE0F900895D0
:100C60000F920FB6F8940F921F9211242F923F9279
:100C70004F925F926F927F928F929F92AF92BF92AC
:100C8000CF92DF92EF92FF920F931F932F933F9398
:100C90004F935F936F937F938F939F93AF93BF9384
:100CA000CF93DF93EF93FF93A091D13CB091D23CCF
:100CB0000DB60D920EB60D9291D549D7A091D13CAB
:100CC000B091D23CCD91CDBFDD91DEBFFF91EF91D0
:100CD000DF91CF91BF91AF919F918F917F916F9154
:100CE0005F914F913F912F911F910F91FF90EF9046
:100CF000DF90CF90BF90AF909F908F907F906F903C
:100D00005F904F903F902F901F900F900FBE0F90CD
:100D10001895FC010396818392832FEF3FEF238385
:100D20003483858396838783908710820895FC019E
:100D3000108611860895CF93DF93FC01DB0121819A
:100D40003281E9018A819B8112968D939C9313973E
:100D50008181928114968D939C9315978A819B81B2
:100D6000EC016C837D83E9016A837B8361837283F9
:100D70001896ED93FC93199780818F5F8083DF91A4
:100D8000CF910895CF93DF93EB01488159814F3F75
:100D90002FEF520731F4DC011796ED91FC91189773
:100DA00017C0FC013396DC0115962D913C911697E6
:100DB000D9012D913C914217530750F00280F381E5
:100DC000E02DA281B3812D913C9142175307B0F7DA
:100DD000A281B381AA83BB831496CD93DC9315972C
:100DE000EC83FD83C283D38388879987FC012081AC
:100DF0002F5F2083DF91CF910895FC01A281B38101
:100E00008481958114968D939C931597A481B581C7
:100E10008281938112968D939C931397A085B185BF
:100E200011968D919C9112978E179F0731F48481B2
:100E3000958111968D939C931297108611868C91B3
:100E400081508C930895CF93DF93EC018C8D8111A9
:100E50000BC088819981892BE1F58A819B810E9451
:100E6000910F1A821B8235C0411117C0482F50E0E4
:100E70008C819D810E94912B2C8D8C819D81820F74
:100E8000911D8C839D832A813B818217930708F1F2
:100E9000888199818C839D831CC0482F50E08E816E
:100EA0009F810E94912B2C8D30E031952195310945
:100EB0008E819F81820F931F8E839F8348815981EA
:100EC0008417950730F48A819B81280F391F2E8360
:100ED0003F838A8D8F5F8A8FDF91CF910895FC01C8
:100EE000CB01A081B181109799F0448D50E026810B
:100EF0003781240F351F268337836281738126173C
:100F0000370710F0A683B783668177810C94912B05
:100F100008950F931F93CF93DF93EC010FB6F894CE
:100F20000F928E8D18169CF48989882381F08E018A
:100F30000F5E1F4F03C08989882349F0C801F7D687
:100F4000811181D78E8D81508E8F1816A4F38FEF6B
:100F50008E8F0F900FBE0FB6F8940F928D8D1816CE
:100F60009CF48885882381F08E01085F1F4F03C0A1
:100F70008885882349F0C801DAD6811164D78D8D20
:100F800081508D8F1816A4F38FEF8D8F0F900FBEA9
:100F9000DF91CF911F910F910895CF92DF92EF9241
:100FA000FF920F931F93CF93DF93D82EC62E8823E3
:100FB000A1F18FE190E01EDDEC01009781F1EC2CB6
:100FC000F12CDE9C8001DF9C100D1124C8010196DC
:100FD00011DD888399830097D9F0AC01400F511F30
:100FE0004A835B831A8E8C839D830E191F099C0193
:100FF000200F311F2E833F83DB8ECC8E8FEF8D8FA2
:101000008E8FCE01089685DECE01419682DE07C026
:10101000CE0114DDC0E0D0E002C0C0E0D0E0CE01DF
:10102000DF91CF911F910F91FF90EF90DF90CF90C4
:101030000895AF92BF92CF92DF92EF92FF920F93FB
:101040001F93CF93DF93CDB7DEB72597CDBFDEBF1C
:101050008C016B014C835D83A22EB12C7C0188E056
:10106000E80EF11C0FB6F8940F92F801928D838D63
:10107000981790F44A2DB601C801E5DEF801818980
:10108000882331F0C801419652D6813009F490DDB1
:101090000F900FBE81E047C0EC81FD81EF2B21F462
:1010A0000F900FBE80E03FC0B11005C0CE01019689
:1010B00081D6BB24B3940F900FBE7DD30FB6F894A6
:1010C0000F92F801858D8F3F09F4158EF801868DFA
:1010D0008F3F09F4168E0F900FBEBE016C5F7F4FDD
:1010E000CE01019672D681111AC00FB6F8940F92F4
:1010F000F801928D0F900FBEF801838D98130BC0ED
:101100006C817D81C701D1D5C80103DF28D481114D
:10111000A9CF4EDDA7CFC801FCDE21D4A3CFC801E3
:10112000F8DE1DD480E02596CDBFDEBFDF91CF91E4
:101130001F910F91FF90EF90DF90CF90BF90AF90F5
:101140000895CF93DF938FE190E054DCEC0100979A
:10115000E1F01A821B82188219821C821D821E8273
:101160001F821A8E81E08B8F1C8E8FEF8D8F8E8F5A
:10117000CE010896CEDDCE014196CBDD20E040E0E9
:1011800050E060E070E0CE0154DFCE01DF91CF91FE
:1011900008950F931F93CF93DF93EC018A019A8DEB
:1011A0008B8D9817B0F4422FCE014DDE8E8D8F3F80
:1011B00061F48989882379F0CE014196B8D58823D6
:1011C00061F081E0F801808309C08F5F8E8F81E03C
:1011D00005C080E003C081E001C081E0DF91CF91D4
:1011E0001F910F910895AF92BF92CF92DF92EF922D
:1011F000FF920F931F93CF93DF93CDB7DEB7259761
:10120000CDBFDEBF8C016B014C835D83B22EA12C60
:101210007C0181E1E80EF11C0FB6F8940F92F80101
:10122000828D882369F1E680F780B601C80157DE18
:10123000B11017C0F801828D8150828F8081918119
:10124000892B21F404D6F80182839383F8018085E9
:10125000882391F0C80108966AD5813069F4A8DC2A
:101260000BC0F801E682F7828189882329F0C80142
:1012700041965DD581119CDC0F900FBE81E053C07B
:101280004C815D81452B21F40F900FBE80E04BC057
:10129000A11005C0CE0101968DD5AA24A3940F906C
:1012A0000FBE89D20FB6F8940F92F801858D8F3F4B
:1012B00009F4158EF801868D8F3F09F4168E0F9074
:1012C0000FBEBE016C5F7F4FCE0101967ED58111AE
:1012D00026C00FB6F8940F92F801828D0F900FBEC2
:1012E000811119C0F80180819181892B49F40FB6D1
:1012F000F8940F92F80182819381BCD50F900FBEB4
:101300006C817D81C701D1D4C80103DE28D381114E
:1013100083CF4EDC81CFC801FCDD21D37DCFC80156
:10132000F8DD1DD380E02596CDBFDEBFDF91CF91E4
:101330001F910F91FF90EF90DF90CF90BF90AF90F3
:1013400008950F931F93CF93DF93EC018A018A8D49
:101350008823C1F0CE01C3DD8A8D81508A8F8D8DA7
:101360008F3F61F48885882379F0CE010896DFD419
:10137000882361F081E0F801808309C08F5F8D8F41
:1013800081E005C080E003C081E001C081E0DF9121
:10139000CF911F910F9108950FB6F8940F92FC0111
:1013A000828D0F900FBE0895CF93DF93EC010FB69F
:1013B000F8940F928D8D8F3F09F41D8E8E8D8F3F87
:1013C00009F41E8E0F900FBE8A8D811103C0CE01CD
:1013D000419693D4CE019DDDDF91CF910895C8EC65
:1013E000DCE388818230E8F3E3DBFBCFCF93DF934C
:1013F000EC01E091D13CF091D23C828393838091C7
:101400009D3C90919E3CC817D90760F46091D13CF7
:101410007091D23C8091B23C9091B33C6E5F7F4F13
:10142000B1DC16C06091D13C7091D23C8091B43C4B
:101430009091B53C6E5F7F4FA5DC80910520909127
:101440000620C817D90720F4C0930520D0930620A2
:10145000DF91CF9108953F924F925F926F927F926A
:101460008F929F92AF92BF92CF92DF92EF92FF92B4
:101470000F931F93CF93DF935C014B01342EDB015D
:101480001196ED91FC9112970280F381E02D119657
:10149000ED93FC9312977B01B3E0EB0EF11CEE157C
:1014A000FF0529F482819381FB0181839283D4011A
:1014B0001196ED91FC911297C680D780432C55244C
:1014C00047FC50940F2EFFE66F2EF0E27F2EF02D9A
:1014D0000EE51CE3D4011196ED91FC9112978281E7
:1014E000938111968D939C931297E816F90639F41F
:1014F000F7018281938111968D939C931297D40169
:101500001196ED91FC911297C681D781EF89F88DE4
:101510008081853A41F4319680E090E001962191F6
:10152000253AE1F302C080E090E039A12E891F92B4
:101530003F939F938F931F922F935F923F92CE0181
:1015400049969F938F937F926F921F930F930E9460
:10155000302CB801C5010E94A12BEDB7FEB73E9615
:10156000EDBFFEBFCC15DD0509F0B4CFDF91CF9103
:101570001F910F91FF90EF90DF90CF90BF90AF90B1
:101580009F908F907F906F905F904F903F900895C5
:101590004F925F926F927F928F929F92AF92BF9283
:1015A000CF92DF92EF92FF920F93CF93DF934C0194
:1015B0003B015A01290183E290E01CDAEC0100971B
:1015C00009F49FC0C114D10409F097C0C50112DA13
:1015D0008F8B988F009719F4CE0130DA92C0A50155
:1015E00065EA70E00E949A2B81E0A81AB1088F8901
:1015F000988DA80EB91E48E050E0B301CE0149967F
:101600000E94C12B18A21E8A1AA26E01E2E0CE0E21
:10161000D11CC6018CDBCE010C9689DBC887D9872B
:1016200081E090E08C879D87CA8BDB8BA201B4019F
:10163000C5010EDA88839983E114F10419F0F701EA
:10164000C083D1830FB6F8940F9280919F3C8F5F37
:1016500080939F3C8091D13C9091D23C892B49F45E
:10166000C093D13CD093D23C80919F3C813081F497
:101670004AC080919A3C81110BC0E091D13CF0911D
:10168000D23C8689081720F0C093D13CD093D23C3D
:101690008E8990919C3C981710F480939C3C90917B
:1016A000953C99A39F5F9093953C90919B3C981794
:1016B00010F480939B3C90E09C01220F331F220F7B
:1016C000331F220F331F820F931FB6018853934C91
:1016D00032DB0F900FBE80919A3C882351F0E0914D
:1016E000D13CF091D23C8689801728F461DA81E000
:1016F00026C081E024C081E022C0CF8AD88EC601F6
:101700006ECF8FEF1CC088EC9CE303DB8FEB9CE378
:1017100000DB86EB9CE3FDDA89EA9CE3FADA80EAF7
:101720009CE3F7DA8FEB9CE38093B43C9093B53C59
:1017300086EB9CE38093B23C9093B33CA9CFDF91BE
:10174000CF910F91FF90EF90DF90CF90BF90AF902F
:101750009F908F907F906F905F904F900895AF9281
:10176000BF92CF92DF92EF92FF920F93A12CB12CF8
:10177000C12CD12CE12CF12C00E020E030E040E441
:1017800050E061E870E28FEE99E002DF813059F4B9
:1017900052D4813041F4F89480939A3C10929D3C4D
:1017A00010929E3CC3D90F91FF90EF90DF90CF90A5
:1017B000BF90AF9008958091993C8F5F8093993C42
:1017C00008950FB6F8940F9280919D3C90919E3CA5
:1017D0000F900FBE089580919F3C08950F931F9323
:1017E000CF93DF938091993C8111AFC080919D3C54
:1017F00090919E3C019680939D3C90939E3C80915D
:101800009D3C90919E3C892B99F58091B43C9091A0
:10181000B53C2091B23C3091B33C2093B43C309322
:10182000B53C8093B23C9093B33C8091963C8F5FE3
:101830008093963CE091B43CF091B53C808181115D
:1018400007C08FEF9FEF809305209093062010C074
:10185000E091B43CF091B53C0580F681E02D068026
:10186000F781E02D8281938180930520909306205B
:1018700020919D3C30919E3C8091052090910620C6
:101880002817390708F466C0E091B43CF091B53CE4
:101890008081882399F0E091B43CF091B53C0580BB
:1018A000F681E02DC681D7818A819B8120919D3C64
:1018B00030919E3C28173907F8F419C08FEF9FEF3D
:1018C000809305209093062045C0E091B43CF091B0
:1018D000B53C0580F681E02DC681D7818A819B8148
:1018E00020919D3C30919E3C2817390728F4809325
:1018F0000520909306202EC08E010E5F1F4FC80159
:101900007CDA8C899D89892B19F0CE010C9675DAC9
:101910008E8990919B3C981710F480939B3C90E0AB
:101920009C01220F331F220F331F220F331F820F00
:10193000931FB8018853934CFED9E091B43CF091C9
:10194000B53C80818111C1CFB9CF8091983C8F5F28
:101950008093983CDF91CF911F910F910895BF9292
:10196000CF92DF92EF92FF920F931F93CF93DF936B
:101970000FB6F8940F928091993C81508093993CD6
:101980008091993C811162C080919F3C882309F429
:101990005FC0B12C0F2EF9EAEF2EFCE3FF2EF02DE5
:1019A0000F2EFEEACF2EFCE3DF2EF02D2CC0D60149
:1019B000ED91FC91C681D781CE010C961EDA8E0185
:1019C0000E5F1F4FC80119DA8E8990919B3C9817C2
:1019D00010F480939B3C90E09C01220F331F220F58
:1019E000331F220F331F820F931FB8018853934C6C
:1019F000A2D9E091D13CF091D23C9E89868998177A
:101A000010F0BB24B394F70180818111D0CF809175
:101A1000983C882379F08091983C882391F0DEDE11
:101A20008091983C81508093983C8091983C8111A2
:101A3000F6CF07C0F1E0BF1621F08091973C8130CE
:101A400049F41092973CB4D881E005C080E003C00F
:101A500080E001C080E00F900FBEDF91CF911F9119
:101A60000F91FF90EF90DF90CF90BF900895CF93AC
:101A7000DF93EC01009791F09EDE80919D3C909168
:101A80009E3CC80FD91F8091D13C9091D23C0296C8
:101A9000B4D9CE01ABDC63DF811101C089D8DF91FD
:101AA000CF9108951F93CF93DF93EC0184DE1882CA
:101AB000FE0101900020E9F731972DE03AE040E087
:101AC00020833183428310919C3C1F5F1150212F52
:101AD00030E0F901EE0FFF1FEE0FFF1FEE0FFF1FAB
:101AE000E20FF31FE853F34C8081882321F0BF01FC
:101AF00042E5CE01B0DC1111E9CFE091B43CF091A8
:101B0000B53C8081882339F06091B43C7091B53C3C
:101B100042E4CE01A0DCE091B23CF091B33C808184
:101B2000882339F06091B23C7091B33C42E4CE011D
:101B300092DC8091A03C882329F043E560EA7CE3B5
:101B4000CE0189DC0CDFDF91CF911F910895809148
:101B5000993C811113C080919B3C90E0FC01EE0FF9
:101B6000FF1FEE0FFF1FEE0FFF1F8E0F9F1FFC01C9
:101B7000E853F34C8081882329F01BC081E08093D7
:101B8000973C089580919B3C815080939B3C809131
:101B90009B3C90E0FC01EE0FFF1FEE0FFF1FEE0FCE
:101BA000FF1F8E0F9F1FFC01E853F34C8081882399
:101BB00049F3E0919B3CF0E0CF01880F991F880F1B
:101BC000991F880F991FE80FF91FE853F34CA18163
:101BD000B28112960D90BC91A02DA183B283CF014A
:101BE0000396A817B90731F412968D919C9113971B
:101BF000818392830180F281E02D86819781809399
:101C0000D13C9093D23C8091903C882309F44CC005
:101C1000E091D13CF091D23C91A1809104209817A1
:101C200009F442C08091933C9091943C0896209195
:101C3000913C3091923C82179307A0F5E091D13C02
:101C4000F091D23C81A180930420E091933CF091EB
:101C5000943C40919D3C50919E3C60E070E04083FC
:101C60005183628373832091933C3091943C2C5F29
:101C70003F4F2093933C3093943CE091933CF09100
:101C8000943C90E0A0E0B0E080839183A283B38392
:101C90008091933C9091943C04968093933C9093D4
:101CA000943C08951092903C0895CF93DF93EB01FC
:101CB0006091D13C7091D23C645F7F4F63D880913A
:101CC000D13C9091D23C029698D8CF3F8FEFD80765
:101CD00051F46091D13C7091D23C6E5F7F4F80EAAD
:101CE0009CE329D807C080919D3C90919E3C8C0F2D
:101CF0009D1F7CDBDF91CF910895CF93DF93EB01A4
:101D00006091D13C7091D23C645F7F4F14D8809138
:101D1000D13C9091D23C029670D880919D3C90919C
:101D20009E3C8C0F9D1F62DBDF91CF9108950F9336
:101D30001F93CF93DF93DC011596ED91FC911697DD
:101D4000C681D7818E01045F1F4FC80156D880918C
:101D5000993C81111BC00A501109C8014ED88E89C7
:101D600090919B3C981710F480939B3C90E09C01D1
:101D7000220F331F220F331F220F331F820F931F97
:101D8000B8018853934C0E949B0605C0B80189EAAC
:101D90009CE30E949B06E091D13CF091D23C81E013
:101DA0002E899689291708F480E0DF91CF911F9141
:101DB0000F9108952091963CFC01208320919D3C39
:101DC00030919E3C2183328308950FB6F8940F9290
:101DD000DB012D913C912F3FBFEF3B0761F140911B
:101DE000963CFC015081541751F040919D3C50911C
:101DF0009E3C0180F281E02D4E175F07F0F4E091E8
:101E00009D3CF0919E3CDC0111964D915C911297A6
:101E1000E41BF50BE217F30790F4E0919D3CF09181
:101E20009E3C4E1B5F0B240F351FFB01208331832B
:101E3000C1DF80E005C080E003C081E001C081E037
:101E40000F900FBE089581E08093973C0895809194
:101E5000D13C9091D23C089580919A3C882331F0F6
:101E60008091993C811104C081E0089580E008953B
:101E700082E008950F931F93CF93DF93EC018E8937
:101E8000E091D13CF091D23C9689891708F044C08A
:101E9000E091D13CF091D23C968921E030E0291BC1
:101EA00031092C873D8790E09C01220F331F220FC0
:101EB000331F220F331F820F931F8853934C2A85A1
:101EC0003B852817390711F58E010E5F1F4FC8019A
:101ED0000E94FD06E091D13CF091D23C86898E8B28
:101EE00090919B3C981710F480939B3C90E09C0150
:101EF000220F331F220F331F220F331F820F931F16
:101F0000B8018853934C0E949B0606C0E091D13CD7
:101F1000F091D23C86898E8BDF91CF911F910F91EA
:101F200008950F931F93CF93DF93EC01009739F13E
:101F30009E898AA1981719F18E010E5F1F4FC80163
:101F40000E94FD068AA18E8B21E030E0281B31091A
:101F50002C873D8790919B3C981710F480939B3C75
:101F600090E09C01220F331F220F331F220F331FDB
:101F7000820F931FB8018853934C0E949B06DF91F8
:101F8000CF911F910F910895FC0162837383808725
:101F900091874617570790F0421B530B8485958510
:101FA00048175907E0F4BF016E5F7F4F8091D73C1F
:101FB0009091D83C0E94C20680E0089542175307D2
:101FC00018F46217730768F4BF016E5F7F4F80914A
:101FD000D93C9091DA3C0E94C20680E0089581E0ED
:101FE000089581E008950FB6F8940F928091D53C42
:101FF0009091D63C892BE1F484EE9CE30E94890603
:102000008BED9CE30E94890684EE9CE38093D93C8F
:102010009093DA3C8BED9CE38093D73C9093D83C33
:1020200065E080E10E94CD078093D53C9093D63C3B
:102030000F900FBE0895AF92BF92CF92DF92EF92B2
:10204000FF920F93D0DF8091D53C9091D63C892BA5
:1020500089F0A12CB12CC12CD12CE12CF12C00E069
:1020600020E030E040E450E066E870E287EF90E185
:102070008FDA01C080E00F91FF90EF90DF90CF905A
:10208000BF90AF9008950F931F93CF93DF93CDB779
:10209000DEB72597CDBFDEBFD901E091D53CF091E9
:1020A000D63C309759F169834A835B838C839D8347
:1020B0001097E1F4D1DE813061F420E0A801BE0187
:1020C0006F5F7F4F8091D53C9091D63C0E9419085C
:1020D00016C020E040E050E0BE016F5F7F4F80916E
:1020E000D53C9091D63C0E94190809C020E0AD0172
:1020F000BE016F5F7F4FCF014CD801C080E02596B5
:10210000CDBFDEBFDF91CF911F910F910895AF92A8
:10211000BF92CF92DF92EF92FF920F931F93CF93D4
:10212000DF935C014EDB6C018091D33C9091D43CF9
:10213000C816D90608F049C031C0A581B681ED9016
:10214000FC900580F681E02DC681D7818E010E5F5F
:102150001F4FC8010E94FD06E989FA89CE01199531
:102160008E858130D9F48C859D858E0D9F1DE81656
:10217000F90660F48A839B83C887D987B801809168
:10218000D93C9091DA3C0E94C20608C000E010E001
:1021900020E030E0A70160E0CE0175DFE091D93C9E
:1021A000F091DA3C80818111C8CF8091D73C909129
:1021B000D83C8093D93C9093DA3CE093D73CF093A1
:1021C000D83C81E0F501808302C0F5011082C09205
:1021D000D33CD092D43CC601DF91CF911F910F9197
:1021E000FF90EF90DF90CF90BF90AF900895CF9386
:1021F000DF9300D000D0CDB7DEB7CE0101965C01F1
:10220000882E9B2CE091D93CF091DA3C8081882388
:1022100009F4B1C00580F681E02DE080F180CBDAD1
:10222000C50175DF8C018981811143C00E151F0521
:1022300090F195DBE091D93CF091DA3C0580F68194
:10224000E02DC680D780C60102960E94FD06D60109
:102250001E968C911E978130A1F41C966D917C91F5
:102260001D976E0D7F1D9701A801C6018DDE81307F
:1022700041F400E010E020E030E0A70160E0C6019A
:1022800002DFD6015196ED91FC915297C601199546
:1022900011C0E12CF12CB701601B710B8091D53C72
:1022A0009091D63C81D85BDB811104C00E94D80597
:1022B00001C055DBCE0106962ADF6C014EC0EC80D2
:1022C000FD80E114F10459F0D7011A96ED91FC91CB
:1022D0001B97EF2B21F0C70102960E94FD06898112
:1022E000823049F18330B1F1811137C02A813B81BD
:1022F000F70164857585620F731FA601C70144DE6F
:10230000813059F5D7015196ED91FC915297C70153
:102310001995F7018685813001F5448555858A81B7
:102320009B81480F591F00E010E020E030E060E0A2
:10233000C701A9DE12C02A813B81D7011C962D93CB
:102340003C931D97B601620F731F9601A601C7014A
:102350001BDE03C0C7010E941E0520E040E050E0E4
:10236000682D792D8091D53C9091D63C0E94F30840
:102370008111A5CF47CF1FDAC501C9DE8C01898144
:10238000882309F486CF95CF0C94FA0408950C9411
:102390001E0508950C94CD070895FB01BA01A9010B
:1023A00020E0BF010E941908992787FD90950895A4
:1023B00020E00E94C908992787FD90950895FB01A8
:1023C000BA01A90120E0BF010E94F308992787FD07
:1023D000909508950E94CC0990E00895CF93DF93E3
:1023E000EC010E94A1089C018883998381E090E020
:1023F000232B11F480E090E0DF91CF910895CF93EB
:10240000DF93EC0160E081E00E94CD07888399832F
:10241000009739F020E040E050E060E070E00E947A
:10242000190881E090E0DF91CF91089520E060E00D
:1024300070E0FC01808191810E94F30821E030E08E
:10244000813011F020E030E0C901089520E040E043
:1024500050E060E070E0FC01808191810E941908E9
:1024600021E030E0813011F020E030E0C901089532
:1024700019DB80E090E00895AED928E2829FC00188
:10248000112408954F925F926F927F928F929F9244
:10249000AF92BF92CF92DF92EF92FF920F2EF0E1B8
:1024A000CF2EF7E2DF2EE12CF12CF02D44244A94BC
:1024B000542C3201812C912C5401C4018C0D9D1D92
:1024C0000E94FA04009759F426013701480C591C60
:1024D0006A1C7B1CF694E794D794C79415C08C0CA7
:1024E0009D1CAE1CBF1CB501A4014C0D5D1D6E1DD5
:1024F0007F1D441555056605770520F0F694E79491
:10250000D794C7940E941E0580E2C816D104E10446
:10251000F10498F6C501B401FF90EF90DF90CF90E1
:10252000BF90AF909F908F907F906F905F904F90F3
:10253000089580E090E0892B21F081E090E00E94F6
:10254000000080E090E0892B19F00E940000FFCF8E
:102550008EEF9FEF0895AF92BF92CF92DF92EF92EE
:10256000FF920F93A12CB12CC12CD12C11D821E0BA
:1025700030E0813011F420E030E088279927821B79
:10258000930B0F91FF90EF90DF90CF90BF90AF90A3
:10259000089517D9BC0180E090E0089512D99C01FC
:1025A000369527953695279536952795A5ECB0E273
:1025B0000E94272A929582958F7089279F7089277C
:1025C000BC0180E090E00895CF92DF92EF92FF92FD
:1025D0000F931F93CF93DF931F921F92CDB7DEB758
:1025E0008093EF3C9093F03C6093ED3C7093EE3C15
:1025F0006B0125E0C20ED11CE894C0F8C89E800192
:10260000C99E100DD89E100D1124C801BDDE809307
:10261000F13C9093F23C892B09F44DC062E070E0EC
:102620008091EF3C9091F03CB5DE8093F33C909329
:10263000F43C892BC1F1A80160E070E08091F13C8D
:102640009091F23C0E949A2B8091EF3C9091F03C4B
:10265000892BA1F1E12CF12C00E010E0E091F13C9C
:10266000F091F23CEE0DFF1DE983FA831082118296
:10267000E981FA81E283F38320E030E0A901BE0121
:102680006F5F7F4F8091F33C9091F43C86DE0F5F4B
:102690001F4FEC0CFD1C8091EF3C9091F03C081713
:1026A0001907E0F20EC08091F13C9091F23C6FDE90
:1026B0008FEF9FEF08C08FEF9FEF05C080E090E0A5
:1026C00002C080E090E00F900F90DF91CF911F91BA
:1026D0000F91FF90EF90DF90CF900895CF93DF930D
:1026E0001F921F92CDB7DEB719821A820E962091E3
:1026F000ED3C3091EE3C28173907E8F020E030E05F
:10270000A901BE016F5F7F4F8091F33C9091F43C33
:1027100056DEE981FA81309789F082819381E8174A
:10272000F90779F480819181019680839183898171
:102730009A81049608C080E090E005C080E090E0B7
:1027400002C080E090E00F900F90DF91CF9108954C
:10275000CF93DF9300D0CDB7DEB71982009751F148
:102760009C01245031092A833B8320FD23C0F901B9
:102770004281538124173507E9F4F9012081318121
:1027800021153105B9F02230310528F021503109E9
:10279000208331830FC0FC01349710821182AE0177
:1027A0004F5F5F4FBE016E5F7F4F8091F33C909112
:1027B000F43CFEDD2396CDBFDEBFDF91CF910895BF
:1027C000CF93DF931F921F92CDB7DEB7009751F1E1
:1027D0009C012450310929833A8320FD23C0F9014B
:1027E0004281538124173507E9F4F90120813181B1
:1027F00021153105B9F02230310528F02150310979
:10280000208331830FC0FC0134971082118220E0B5
:1028100030E0A901BE016F5F7F4F8091F33C909142
:10282000F43CBBDD0F900F90DF91CF910895809124
:10283000F33C9091F43CCECD0895CF93DF931F925B
:102840001F92CDB7DEB769837A830097A9F020E0A5
:1028500030E0A901BE016F5F7F4FFC018485958543
:102860009CDD21E030E0019711F420E030E0882782
:102870009927821B930B02C08EEF9FEF0F900F9052
:10288000DF91CF9108950F931F93CF93DF9381DE54
:10289000CB010E94962A0E94932A8F7190789923E7
:1028A00024F40197806E9F6F0196805E8093F83CC0
:1028B00086EF9CE3A4DD019731F5CDEFDCE30DEE6F
:1028C0001DE304C06896C017D10779F062E070E09C
:1028D0008AE090E05FDD8A879B87FE013197108256
:1028E000CE017CDD019771F311C089EF9CE387DD98
:1028F00021E030E0019711F420E030E088279927AB
:10290000821B930B05C08FEF9FEF02C08FEF9FEFED
:10291000DF91CF911F910F910895CF92DF92EF92A7
:10292000FF920F931F93CF93DF93EBEFFCE30BEE3C
:102930001DE3EF01A181AA2399F0A081A11110C08C
:10294000C480D580E680F780C626D726E826F926FB
:10295000C222D322E422F522CD28CE28CF2829F086
:102960007896E017F10729F703C08E2F9D2F02C03C
:1029700080E090E0DF91CF911F910F91FF90EF9059
:10298000DF90CF9008950F931F93CF93DF931F9203
:102990001F92CDB7DEB78C0105C089819A8100975F
:1029A00009F00EDF20E030E0A901BE016F5F7F4F2C
:1029B000F8018485958503DD019779F380E090E047
:1029C0000F900F90DF91CF911F910F9108951F935A
:1029D000CF93DF93182F44E650E060E070E089EF7A
:1029E0009CE324DD019709F047C08091F53C90E01D
:1029F00001966AE070E00E940E2AEC01CC0FDD1F08
:102A0000C80FD91FCC0FDD1FCC0FDD1FCC0FDD1F72
:102A1000C550D34C4981411132C021C0EC01CC0FCB
:102A2000DD1FC80FD91FCC0FDD1FCC0FDD1FCC0F52
:102A3000DD1FC550D34C4981442389F00196BF0165
:102A40000E940E2A215031092115310539F74130F4
:102A500031F489EF9CE3FADC80E090E01AC091E069
:102A600099831E861F8618838093F53C89EF9CE32B
:102A7000EDDC8C2F9D2F0DC080E090E00AC0019608
:102A80006AE070E00E940E2A29E030E0EAE0F0E01F
:102A9000C5CFDF91CF911F9108958F929F92AF92F2
:102AA000BF92CF92DF92EF92FF92CF93DF934B01D1
:102AB0005C0169017A0180E08ADFEC01009779F01E
:102AC0008C829D82AE82BF82C886D986EA86FB86CA
:102AD00060DD688B798B8A8B9B8BCE0154DFCE01B6
:102AE000DF91CF91FF90EF90DF90CF90BF90AF90AC
:102AF0009F908F900895CF93DF93EC010097A9F0FA
:102B000089818823A9F044E650E060E070E089EF15
:102B10009CE38CDC019779F41982CE0134DF89EFD4
:102B20009CE394DC80E090E008C08EEF9FEF05C04E
:102B300080E090E002C08DEF9FEFDF91CF9108958C
:102B4000FC019581929596959695937086818F70EC
:102B5000880F880F892B90E008958F929F92AF92F3
:102B6000BF92CF92DF92EF92FF920F931F938A0151
:102B70009B010150110921093109452B462B472B97
:102B800049F1A82FB92F88248A94982C54014D918B
:102B900075016401C426DD24EE24FF24C601880FDC
:102BA000991F880F991FFC01E65FFD4FC590D590D6
:102BB000E590F49077276B2D5A2D492D4A015B0142
:102BC0008C249D24AE24BF24015011092109310910
:102BD000F0F604C088248A94982C5401C501B401ED
:102BE00060957095809590951F910F91FF90EF9053
:102BF000DF90CF90BF90AF909F908F900895CF932C
:102C0000DF93EC010097B9F04885598560E070E0EA
:102C10000E96A3DF5ED0E885F985EC0FFD1F668771
:102C20007787808B918B888599850496888799878B
:102C300080E090E002C08EEF9FEFDF91CF9108958A
:102C4000EF92FF920F931F93CF93DF9300D01F92C9
:102C5000CDB7DEB78C01009751F1FC0180859185DD
:102C60008430910538F1AC014450510960E070E0C6
:102C7000C8010E9672DF2DD069837A838B839C8383
:102C8000F801808591857C01F4E0EF1AF1080A963D
:102C900044E050E0BE016F5F7F4F800F911F0E94A4
:102CA000842B009751F4F801E086F18608C08EEF7E
:102CB0009FEF05C08EEF9FEF02C08EEF9FEF24962F
:102CC000CDBFDEBFDF91CF911F910F91FF90EF90AD
:102CD0000895CF92DF92EF92FF920F931F93F62EFB
:102CE000EE24DD24CC24092F1127222733270C2999
:102CF0001D292E293F296B017C01CC24EE24FF24C1
:102D0000FE2CED2CDC2CCC240C291D292E293F294E
:102D1000DC01CB0188279927BB27892F9A2FAB2F5E
:102D2000BB27BC01CD01602B712B822B932B1F91F4
:102D30000F91FF90EF90DF90CF900895CF92DF92A8
:102D4000EF92FF920F931F93F62EEE24DD24CC24F6
:102D5000092F1127222733270C291D292E293F2926
:102D60006B017C01CC24EE24FF24FE2CED2CDC2C0A
:102D7000CC240C291D292E293F29DC01CB018827D1
:102D80009927BB27892F9A2FAB2FBB27BC01CD01D9
:102D9000602B712B822B932B1F910F91FF90EF9043
:102DA000DF90CF9008958091ED3D9091EE3D089594
:102DB0008091EB3D9091EC3D08958093653F63DDFC
:102DC0009C01009731F408D29C01009721F437C38D
:102DD0000895932F0895932F0895CF92DF92EF9245
:102DE000FF92CF93DF936B017C01DC01CB018171FA
:102DF0009927AA27BB27892B8A2B8B2B11F5D70163
:102E0000C6018E7A9E7F892B8A2B8B2BE9F481E079
:102E1000DEDDEC010097D9F0D0FE0AC062E070E080
:102E20008AE090E0B7DA8E879F87892B19F412C069
:102E30001E861F86CC8ADD8AEE8AFF8A8C2F9D2F04
:102E40000BC080E090E008C080E090E005C080E02A
:102E500090E002C080E090E0DF91CF91FF90EF9092
:102E6000DF90CF900895CF93DF931F921F92CDB73D
:102E7000DEB7009781F0FC0186859785009771F099
:102E80009A01AB01BE016F5F7F4F99DA019749F458
:102E900089819A8108C080E090E005C080E090E0E0
:102EA00002C080E090E00F900F90DF91CF910895E5
:102EB000CF93DF931F921F92CDB7DEB719821A828C
:102EC000009789F0FC012181213081F49A01AB0146
:102ED000BE016F5F7F4F8485958571DA019749F454
:102EE00089819A8108C080E090E005C080E090E090
:102EF00002C080E090E00F900F90DF91CF91089595
:102F00008F929F92AF92BF92CF92DF92EF92FF92F9
:102F10000F931F93CF93DF93962E872ED82FC92F11
:102F20005A01680179014115510509F47BC0892FC7
:102F300081708295807F9D2F92959F70892BA9D259
:102F40008C01009709F471C0DC01ED91FC91309780
:102F500009F46EC024813581232B09F46CC02C2F19
:102F600026952F7130E08091653F90E02817390752
:102F700059F493FC46C090FE05C0C50140DE892B84
:102F800009F03FC092FC3DC0F50192868386D4874C
:102F9000C587C085D185F801A081B18117968D9133
:102FA0009C911897009719F08C179D0750F1149673
:102FB000ED91FC911597A7019601B501CD011995E9
:102FC0000097F9F4D801ED91FC9111974285538552
:102FD000648575854F5F5F4F6F4F7F4F4287538783
:102FE00064877587ED91FC9146A157A160A571A5F5
:102FF0004C0F5D1F611D711D46A357A360A771A7EC
:103000001CC0D801ED91FC9182899389A489B5896E
:103010000196A11DB11D828B938BA48BB58B86EF7E
:103020009FEF0BC086EF9FEF08C086EF9FEF05C0B4
:1030300086EF9FEF02C086EF9FEFDF91CF911F9148
:103040000F91FF90EF90DF90CF90BF90AF909F9047
:103050008F9008950F931F93FB010097D1F0309745
:10306000D9F0DC0111966C9111976130C1F418967A
:103070006D917D918D919C911B9789019A01AF0172
:103080003FDF31E020E0892B09F030E0832F922FE1
:1030900008C080E090E005C080E090E002C080E0E1
:1030A00090E01F910F9108954F925F926F927F92DF
:1030B0008F929F92AF92BF92CF92DF92EF92FF9248
:1030C0000F931F93CF93DF93CDB7DEB7F601128630
:1030D000E0FC45C02701380194E1492255246624CB
:1030E0007724452846284728E9F5E6FE02C091E006
:1030F000928764FB992790F935853E7F392B358778
:10310000542F5295550F550F507C93859F73952BD7
:103110009387469546954F706295607F642B6487D0
:103120004091653F4F71440F31702F73907C292B74
:103130002387982F9295990F990F907C832F842B3A
:10314000892B8587628573858485958595018401A2
:10315000AF01D6DE009741F08BEF9FEF05C08EEFF9
:103160009FEF02C08BEF9FEFDF91CF911F910F91E7
:10317000FF90EF90DF90CF90BF90AF909F908F9097
:103180007F906F905F904F90089581329105F0F499
:10319000FC01EE0FFF1FE80FF91FE151F24C2081F7
:1031A000213059F4FC01EE0FFF1F8E0F9F1FFC0111
:1031B000E151F24C81819281089580914F3E81309E
:1031C00041F48091503E9091513E089580E090E00E
:1031D000089580E090E0089583E6EFEEFDE3DF01DF
:1031E0001D928A95E9F780E090E00895CF93DF93F0
:1031F000EC01CB01209781F062E070E0CBD88E87A4
:103200009F8721E030E0892B11F020E030E0882713
:103210009927821B930B02C08EEF9FEFDF91CF9116
:1032200008950097E1F06132E8F470E0FB01EE0FE1
:10323000FF1FE60FF71FE151F24C2081211115C04D
:10324000FB01EE0FFF1F6E0F7F1FFB01E151F24CE0
:103250008183928381E0808380E090E008958EEF07
:103260009FEF08958EEF9FEF08958CEF9FEF0895E5
:103270000F931F93CF93DF93EA018901F9018285B0
:1032800082FF0EC08E8D9F8DA8A1B9A10196A11DB0
:10329000B11D8E8F9F8FA8A3B9A38BEF9FEF28C07E
:1032A00080FF12C0C901CCDC892B71F08E899F8907
:1032B000A88DB98D0196A11DB11D8E8B9F8BA88FF6
:1032C000B98F8AE99FEF14C0F801828583FF0EC091
:1032D0008E8D9F8DA8A1B9A10196A11DB11D8E8FC4
:1032E0009F8FA8A3B9A38BEF9FEF02C080E090E06F
:1032F000DF91CF911F910F9108952FEF3FEF40E0A5
:1033000050E0BC018091523E9091533E58D80197B5
:1033100019F08DEF9FEF089580E090E00895EF920F
:10332000FF920F931F930F2EF4E5EF2EFEE3FF2E77
:10333000F02D8B0120E030E0AC016EE870E283E616
:103340009AE109D921E030E0892B11F420E030E046
:1033500088279927821B930B1F910F91FF90EF9065
:1033600008950F931F93CF93DF938C01C091B93EC3
:10337000D091BA3E209771F04AE050E0B8018881C0
:1033800099810E94B32B892B29F00AA8DBA9C02DB3
:10339000209791F7CE01DF91CF911F910F91089562
:1033A000A091B93EB091BA3E109741F48093B93ED6
:1033B0009093BA3EFC0112AA13AA0895A817B90760
:1033C000B9F0D296ED91FC91D397309739F40AC0B9
:1033D00022A933A92115310531F0F9018E179F0774
:1033E000B9F70895FD0182AB93ABFC0112AA13AAB1
:1033F00008950F931F93CF93DF93182FEB01042FA2
:10340000209799F0CB01CCDF113290F4812F90E01E
:10341000FC01EE0FFF1FE80FF91FEA5AF14CC083C1
:10342000D183028380E090E005C08EEF9FEF02C061
:103430008EEF9FEFDF91CF911F910F91089583E65B
:10344000E6E5FEE3DF011D928A95E9F78091523EA1
:103450009091533E892B61F464E070E08AE090E043
:103460000E94CA118093523E9093533E892B71F073
:103470004FEF6BE370E28091653FBBDF4FEF6BE393
:1034800070E280E2B6DF80E090E008958FEF9FEF7A
:10349000089590E0FC01EE0FFF1FE80FF91FEA5AB4
:1034A000F14C20813181232B11F0CF0108958091BF
:1034B000B63E9091B73E892B19F086EB9EE30895B6
:1034C00080E090E00895CF93DF9300D000D0CDB797
:1034D000DEB7CE01019611DF892BD9F7CB80DC80D6
:1034E000CD82DE82D6011C969C911C9792959F708E
:1034F0001D968C9181708295807F892B482F50E09A
:103500002091653F30E04217530721F18F3111F1CF
:10351000C0DF009759F0DC01ED91FC9189819A811F
:10352000E817F90731F48185811103C0C60148D934
:10353000D0CFF601628573858485958500E010E023
:103540009801A601DDDC892B09F4C3CF8D819E8112
:1035500037D9BFCFD6011B969C911B979295969514
:10356000969593701C968C918F70880F880F892B7D
:1035700090E00BDE8C01009709F4B5C0FC01648972
:1035800075898689978970FFBDC02D813E814981EB
:103590005A816EDE992324F48D819E8111D999CFB1
:1035A00020E030E0A901BE016B5F7F4FD8011E967D
:1035B0008D919C911F970E94CD11019709F489CF9D
:1035C0008D819E81FDD885CF8D819E81F9D881CF57
:1035D0002D813E8149815A81F801648975898689E6
:1035E000978946DE992324F48D819E81E9D871CF95
:1035F000ED81FE819585892F807C2F2D2F73F22EF2
:10360000F82A8091653F8F71880F2F2D217CF22E33
:10361000F82A969594FB882780F980FBF0F883853B
:10362000482F4F73469546959295907F492B982F3A
:10363000929596959695937034853F70330F330F1E
:10364000392B8295880F880F807C382B22856285E4
:103650007385848595855F2D20DA6C01009721F4B0
:103660008D819E81ADD835CFD8011E968D919C91CC
:103670001F97F6018687978754968D919D910D909F
:10368000BC91A02D848B958BA68BB78B12C02D81FE
:103690003E8149815A81D60154966D917D918D91DB
:1036A0009C915797E5DD992324F48D819E8188D8DC
:1036B00010CF8D819E81FC01228521FF10C0E98100
:1036C000FA8146895789608D718D4F5F5F4F6F4FCB
:1036D0007F4F468B578B608F718F72D8FACEBC01AB
:1036E000C6018AD3F6CEED81FE816285738584851D
:1036F000958520E03FEF4FEF5FE30FD96C01009716
:1037000031F662CFED81FE81628573858485958572
:1037100020E03FEF4FEF5FE300D96C01009709F025
:10372000B6CF56CF0F931F930115110519F40E94C0
:10373000CD1103C0A8010E94D811019719F480E0AF
:1037400090E002C087EF9FEF1F910F910895AF9215
:10375000BF92CF92DF92EF92FF920F931F93CF937E
:10376000DF9300D01F92CDB7DEB76C017B015A0109
:10377000009709F450C06115710541F441155105D8
:1037800011F41ED848C00E94A81345C069837A83EB
:103790008B839C838A0120E030E0A901BE016F5F2A
:1037A0007F4F8091523E9091533EBCDF892BB1F008
:1037B000F701828D938DA48DB58D0196A11DB11D4C
:1037C000828F938FA48FB58FAB2821F4C6010E94FE
:1037D000E01321C0C6010E94A8131DC0F701468551
:1037E0005785608971894F5F5F4F6F4F7F4F468765
:1037F0005787608B718BF60120853185F70182A593
:1038000093A5A4A5B5A5820F931FA11DB11D82A7E5
:1038100093A7A4A7B5A72496CDBFDEBFDF91CF9114
:103820001F910F91FF90EF90DF90CF90BF90AF90DE
:1038300008952FDEFC01828108950F931F93CF938B
:10384000DF93EB018E85811155C18F85833009F49B
:103850006DC030F4813069F0823009F44FC045C149
:10386000853009F4F1C008F4D8C0863009F406C1E7
:103870003CC144E150E062E970E2CE018E5B9F4FB3
:103880000E94C12BFE01EB5AFF4F10828CE0EAE947
:10389000F0E2DE01AA5ABF4F01900D928A95E1F73E
:1038A000FE01EF59FF4F108289E0E6EAF0E2DE0107
:1038B000AE59BF4F01900D928A95E1F7FE01E6598E
:1038C000FF4F108270DA44E150E0BC01CE01409617
:1038D0000E94C12B1BA26CDA4EE150E0BC01CE016C
:1038E00084960E94C12BFE01EF5BFF4F10828DE595
:1038F00090E08887998780E090E0F9C0CB014296FC
:1039000030DD009749F04989BC01888972DD892B37
:1039100031F08EEF9FEF05C08EEF9FEF02C080E089
:1039200090E02FE030E028873987E1C0CB01409656
:1039300018DD8C01009709F469C0FC01628573856C
:1039400084859585C6D96B8F7C8F8D8F9E8FF8016E
:103950006685778580899189BCD96F8F78A389A383
:103960009AA3F8016289738984899589B2D96BA376
:103970007CA38DA39EA3F80166897789808D918DA4
:10398000A8D96FA378A789A79AA7F801628D738D2C
:10399000848D958D9ED96BA77CA78DA79EA7F801D6
:1039A000668D778D80A191A194D96FA778AB89ABF3
:1039B0009AABF80162A173A184A195A18AD96BABDE
:1039C0007CAB8DAB9EABF80166A177A180A591A5DC
:1039D00080D96FAB78AF89AF9AAFF80162A573A5B4
:1039E00084A595A576D96BAF7CAF8DAF9EAFF8015E
:1039F00066A577A580A991A96CD9FE01FF96608381
:103A000071838283938380E090E002C08EEF9FEF0A
:103A100025E330E0288739876AC0688979898A89EF
:103A20009B8957D9688B798B8A8B9B8B4C89493CB6
:103A300040F450E0CE0145960E94912B80E090E04A
:103A400056C08EEF9FEF53C0688979898A899B8918
:103A500040D9DC01CB01888B998BAA8BBB8B4C891D
:103A6000493C48F450E0BE016B5E7F4F0E94912BB1
:103A700080E090E03CC08EEF9FEF39C06889798983
:103A80008A899B895BD9688B798B8A8B9B8B6C89A4
:103A90007D898E899F8952D96C8B7D8B8E8B9F8B74
:103AA00088899989AA89BB89892B8A2B8B2B21F03C
:103AB000CE0140960E948F04CE0140960E948E0453
:103AC000688979898A899B8904D9688B798B8A8BE3
:103AD0009B8B6C897D898E899F89FBD86C8B7D8BB4
:103AE0008E8B9F8B80E090E002C08EEF9FEF2FEFD8
:103AF0002E8702C08EEF9FEFDF91CF911F910F9124
:103B00000895AF92BF92CF92DF92EF92FF920F9300
:103B10001F93CF93DF938C01EB0112D8873091056F
:103B200008F090C0FC01E250FF4F0C94212ABE0126
:103B3000C80183DE892B09F489C0CE010E94E013FD
:103B400092C00E943C127C010E94C4115C010E9440
:103B50003812B701C5010E94D02B6C011816190646
:103B60000CF074C0E12CF12C209741F484EC90E02F
:103B70000E946E13EC01009709F475C0A6014E195E
:103B80005F09453C510514F044EC50E048875987E3
:103B9000B5016E0D7F1DCE010E960E94912B88857A
:103BA0009985E80EF91E20E030E0A901BE01C801A8
:103BB00051DA892B19F4CE010E94E013EC14FD04B4
:103BC0000CF051C0C0E0D0E0CFCF0E94421281D8AB
:103BD0006E877F87888B998B84E090E088879987B0
:103BE00035C06E857F8588899989A8D867307048E7
:103BF0008740904821F0CE010E94E01334C00E941B
:103C00009912CE010E94E0132EC00E941714BC012D
:103C1000882777FD8095982F5CD86E877F87888B63
:103C2000998B84E090E08887998710C00E94CE121B
:103C300050D86E877F87888B998B84E090E0888747
:103C4000998704C0CE010E94E0130DC0209759F05F
:103C500020E030E0A901BE01C801FCD9892B19F48C
:103C6000CE010E94E013DF91CF911F910F91FF9041
:103C7000EF90DF90CF90BF90AF900895CF92DF92FA
:103C8000EF92FF92CF93DF93EB0169017A019C855C
:103C900092959F708D8581708295807F892BC9DD7B
:103CA0008F3F51F49C8592959F708D858170829590
:103CB000807F892B8E830AC09C8592959F708D850D
:103CC00081708295807F892BB4DD8E836A857B85A8
:103CD0008C859D850E9469166A877B878C879D8766
:103CE000888599850496888799871F821982A601FD
:103CF000BE0180E090E00E947C04019619F085EFFF
:103D00009FEF02C080E090E0DF91CF91FF90EF90B5
:103D1000DF90CF9008950F931F93CF93DF93EC0123
:103D20008B01009779F18885998504978D3F9105DE
:103D300088F0E9E2F0E280819181A281B38101966D
:103D4000A11DB11D80839183A283B383CE010E9404
:103D5000A81318C088879987C093BB3ED093BC3EF8
:103D60006A857B858C859D850E949E166A877B87E8
:103D70008C879D87A80167E070E28091BB3E90919F
:103D8000BC3EE5DCDF91CF911F910F910895CF925A
:103D9000DF92EF92FF920F931F93E82FCB019A01CE
:103DA0000F2EFBE8CF2EFEE1DF2EF02D0F2EFAE0D6
:103DB000EF2EF12CF02D0AE010E04E2F60E070E0C5
:103DC0000E945904019631F487E090E2E9DA80E03C
:103DD00090E002C085EF9FEF1F910F91FF90EF9051
:103DE000DF90CF900895CB0140E050E06BE370E2AC
:103DF000AEDC80E090E008950F931F93CF93DF93A4
:103E00001F921F92CDB7DEB789839A838B010E94E0
:103E10001D14992324F4C8010E94E01319C0E981FC
:103E2000FA8186859785009799F020E030E0A90116
:103E3000BE016F5F7F4F0E94CD11019729F08981EC
:103E40009A810E947B1504C0E981FA811686178643
:103E50000F900F90DF91CF911F910F910895C0E0C7
:103E6000D6E011E01F8388EE93E00E94370DFACF71
:103E7000AF92BF92CF92DF92EF92FF920F9350D604
:103E800066E570E081E090E00E94E41284E00E9428
:103E9000DD1643E250E060E070E084E078DF41E06E
:103EA00067E070E281E0A5DA60E070E084EF91E025
:103EB00036DAA12CB12CC12CD12CE12CF12C00E054
:103EC00020E030E040E450E068EB70E28FE29FE1F8
:103ED0000E94C80A20E030E040E051E06EEB70E262
:103EE0008DEA93E00E94C80A20E030E040E052E012
:103EF00066EC70E280EE90E20E94C80A0E94AF0B6E
:103F000080E090E00F91FF90EF90DF90CF90BF9016
:103F1000AF9008958F929F92AF92BF92CF92DF920F
:103F2000EF92FF920F931F93CF93DF93CDB7DEB73E
:103F30006497CDBFDEBF7C010E941F054AE08E0161
:103F40000F5F1F4FB8010E94DB2B8091663F90915D
:103F5000673FB8010E960E94AC2BC090663FD09090
:103F6000673FF80101900020E9F73197E01BF10B62
:103F7000D6011896ED93FC931997F7014385842F8A
:103F8000829586958695837024852F70220F220F47
:103F9000282B4F73658566956F710F2EF8EE8F2E67
:103FA000F3E09F2EA12CB12CF02DE12CF12C8701F8
:103FB00082E07AD8892B21F480E1E0E0F6E0878383
:103FC00080E090E06496CDBFDEBFDF91CF911F917E
:103FD0000F91FF90EF90DF90CF90BF90AF909F90A8
:103FE0008F9008954F925F926F927F928F929F92DF
:103FF000AF92BF92CF92DF92EF92FF920F931F93F7
:10400000CF93DF93CDB7DEB7C054D109CDBFDEBFAC
:104010007C018091783F9091793FA0917A3FB09157
:104020007B3F4090783F5090793F60907A3F70900E
:104030007B3F8090703F9090713FA090723FB09016
:10404000733F0091703F1091713F2091723F30910A
:10405000733FECE3F0E0BF010E940E2A9F938F9321
:10406000C201BF010E940E2A7F936F93E8E1F0E046
:10407000C401BF010E940E2A9F938F93C801BF0104
:104080000E940E2A7F936F938FEC90E29F938F9301
:104090008E010F5F1F4F1F930F930E94302C809152
:1040A000663F9091673FB8010E960E94AC2BC0907E
:1040B000663FD090673FF80101900020E9F7319703
:1040C000E01BF10BD6011896ED93FC931997F701BD
:1040D0004385842F829586958695837024852F70DD
:1040E000220F220F282B4F73658566956F710F2E57
:1040F000F8EE8F2EF3E09F2EA12CB12CF02DE12CA9
:10410000F12C870182E00E945418CDBFDEBF892BBD
:1041100021F480E1E0E0F6E0878380E090E0C05C9D
:10412000DF4FCDBFDEBFDF91CF911F910F91FF9089
:10413000EF90DF90CF90BF90AF909F908F907F9047
:104140006F905F904F9008958F929F92AF92BF9221
:10415000CF92DF92EF92FF920F931F93FC01438562
:10416000842F829586958695837024852F70220FE3
:10417000220F282B4F73658566956F710F2EF8EE11
:104180008F2EF3E09F2EA12CB12CF02D6F01E12C8E
:10419000F12C870182E00E945418892B21F480E1E0
:1041A000E0E0F6E0878380E090E01F910F91FF90C0
:1041B000EF90DF90CF90BF90AF909F908F90089539
:1041C000CF93DF9300D0CDB7DEB788E490E00E94B4
:1041D0006E138093663F9093673F20E041E050E08C
:1041E000BE016F5F7F4F8091BD3E9091BE3E0E94A9
:1041F000F308882391F38981813021F038F08230EF
:1042000049F0EBCF8A819B8185DEE7CF8A819B8154
:104210009BDFE3CF8A819B81E5DEDFCFFC0120813C
:10422000207F622B60830895FC012081207F622B18
:1042300060830895FC0126812C7F622B668308959C
:10424000FC0126812C7F622B66830895FC0160832C
:1042500071834863DB0111964C93A081B18115965F
:104260002C930190F081E02D81E0848308950F93D9
:10427000CF93DF93293408F04FC0023008F04EC0CE
:10428000FC01E05BFF4F308131114AC031E03083E7
:1042900031961082660FDC0112966C932223A1F0F6
:1042A000EA01BA016F5F7F4F3FEF320F630F711D5D
:1042B000FA01DF01AC1BBD0B3191A80FB91F13969A
:1042C0003C93E617F707A9F7FC01E45BFF4F208357
:1042D000DC01A35BBF4F0C9311961C9211961C92AC
:1042E0002081222349F0FC0122812E7F0190F08160
:1042F000E02D268381E017C0FC01E35BFF4F2081A6
:10430000222381F0DC0112962C9112972160ED910D
:10431000FC91268381E007C080E005C080E003C0F7
:1043200080E001C081E0DF91CF910F9108950F935C
:1043300000E09DDF0F910895DC01ED91FC91119754
:10434000248122FF05C034E0AF5ABF4F3C9305C023
:1043500033E0DC01AF5ABF4F3C9328602483FC015B
:10436000E05BFF4F10820895CF93DF93FC01E45B85
:10437000FF4F308131964081DC01ED91FC91248129
:1043800024FF0AC023E02383FC01EF5AFF4F25E0FE
:1043900020833197108225C0DC01A25BBF4F2C9196
:1043A000231750F42C91EC01C20FD11D8B81878310
:1043B0008C918F5F8C9315C0DC01A15BBF4F2C915A
:1043C000241730F4DC0112968C918160868309C039
:1043D00023E02383FC01EF5AFF4F21E02083319734
:1043E0001082DF91CF910895FC01E15BFF4F2081A6
:1043F000211112C0DC01ED91FC9111972781FC0184
:10440000E15BFF4F3081A30FB11DA55BBF4F2C9324
:1044100020812F5F20830CC0DC01ED91FC9123E013
:10442000238322E0FC01EF5AFF4F20833197108253
:10443000FC01E35BFF4F308132962081231730F47B
:10444000DC01ED91FC9182E083830895DC01ED9124
:10445000FC9127E02383FC01EF5AFF4F21E02083EA
:10446000319710820895DC01ED91FC912481322F67
:104470003C7011F061CF089526FF02C075CF0895FA
:10448000222314F4B1CF0895FC01EF5AFF4F26E028
:104490002083319710820895FC01608371834283E9
:1044A0005383E35BFF4F1082319610823196108266
:1044B00031961082319610820895DC01ED91FC91C5
:1044C000119748634087ED91FC91660F63870895CB
:1044D000FC01E05BFF4F608331971082DC01129694
:1044E000ED91FC91139719950895CF93DF93EC010B
:1044F000FC01EF5AFF4F8081882359F0E881F98150
:1045000082E0818766E0CE01E3DFCF5ADF4F188279
:1045100016C0FE01E15BFF4F81E08083319610827F
:10452000E881F98180858B7F8087FE01E35BFF4F07
:10453000108231961082E881F98183E08187DF91D2
:10454000CF910895DC01ED91FC91119720852B7F8F
:104550002087ED91FC9122852064228761E0B8CF0D
:104560000895CF93DF93EC01E881F9818085846021
:104570008087FE01E35BFF4F8081883410F56881FE
:104580007981DB011C962C918081AE01480F511D71
:10459000DA0114962C9380818F5F8083349680811A
:1045A000882351F082E0FB01818766E0CE0190DF35
:1045B000CF5ADF4F18820CC083E0DB0119968C9331
:1045C00007C0E881F98186E0818762E0CE0180DF63
:1045D000DF91CF910895CF93DF93FC01E25BFF4F12
:1045E0002081222359F0DC01ED91FC91228524FFEA
:1045F00005C022E0218761E06BDF21C0FC01E25BA6
:10460000FF4F2081211114C02081DC01A20FB11DB8
:10461000A45BBF4F2C91EC01A881B9811C962C930F
:1046200020812F5F2083E881F98183E0818707C0A3
:10463000DC01ED91FC9122E0218762E049DFDF910E
:10464000CF910895DC01ED91FC91228521FF02C0FC
:10465000C2CF089586CF0895DC01ED91FC912285AB
:1046600022FF0CC0FC01E35BFF4F108231961082E9
:10467000329624E0208331971082089523FF0CC0E6
:10468000FC01E35BFF4F108231961082329623E0EB
:104690002083319710820895422F4074322F317455
:1046A000313411F422CF0895442311F04BCF0895F3
:1046B000222314F4C7CF089565E00ACF08951F920E
:1046C0000F920FB60F92112408B60F9218BE09B6BA
:1046D0000F9219BE0AB60F921ABE0BB60F921BBEEE
:1046E0002F933F934F935F936F937F938F939F93FA
:1046F000AF93BF93EF93FF93CF93DF931F921F92DC
:10470000CDB7DEB7E0916E3FF0916F3F1A82A08186
:10471000B1818C91898320E0AE014E5F5F4FBE0175
:104720006F5F7F4F838194810E94C9088A818111C4
:104730000E94D8050F900F90DF91CF91FF91EF91DC
:10474000BF91AF919F918F917F916F915F914F91A9
:104750003F912F910F900BBE0F900ABE0F9009BE94
:104760000F9008BE0F900FBE0F901F9018951F92CC
:104770000F920FB60F92112408B60F9218BE09B609
:104780000F9219BE0AB60F921ABE0BB60F921BBE3D
:104790002F933F934F935F936F937F938F939F9349
:1047A000AF93BF93EF93FF93CF93DF931F921F922B
:1047B000CDB7DEB7E0916C3FF0916D3F1A82A081DA
:1047C000B1818C91898320E0AE014E5F5F4FBE01C5
:1047D0006F5F7F4F838194810E94C9088A81811114
:1047E0000E94D8050F900F90DF91CF91FF91EF912C
:1047F000BF91AF919F918F917F916F915F914F91F9
:104800003F912F910F900BBE0F900ABE0F9009BEE3
:104810000F9008BE0F900FBE0F901F9018951F921B
:104820000F920FB60F92112408B60F9218BE09B658
:104830000F9219BE0AB60F921ABE0BB60F921BBE8C
:104840002F933F934F935F936F937F938F939F9398
:10485000AF93BF93EF93FF93CF93DF931F921F927A
:10486000CDB7DEB7E0916A3FF0916B3F1A82A0812D
:10487000B1818C91898320E0AE014E5F5F4FBE0114
:104880006F5F7F4F838194810E94C9088A81811163
:104890000E94D8050F900F90DF91CF91FF91EF917B
:1048A000BF91AF919F918F917F916F915F914F9148
:1048B0003F912F910F900BBE0F900ABE0F9009BE33
:1048C0000F9008BE0F900FBE0F901F9018951F926B
:1048D0000F920FB60F92112408B60F9218BE09B6A8
:1048E0000F9219BE0AB60F921ABE0BB60F921BBEDC
:1048F0000F931F932F933F934F935F936F937F93E8
:104900008F939F93AF93BF93EF93FF93CF93DF93D7
:104910001F921F92CDB7DEB700916E3F10916F3F8F
:10492000AE014F5F5F4FBE016E5F7F4FD80115969E
:104930008D919C9116970E94A109813031F4D80184
:10494000ED91FC918A81808306C0D801ED91FC91A4
:1049500083818C7F83830F900F90DF91CF91FF91A4
:10496000EF91BF91AF919F918F917F916F915F91E7
:104970004F913F912F911F910F910F900BBE0F9070
:104980000ABE0F9009BE0F9008BE0F900FBE0F9089
:104990001F9018951F920F920FB60F92112408B610
:1049A0000F9218BE09B60F9219BE0AB60F921ABE20
:1049B0000BB60F921BBE0F931F932F933F934F93F2
:1049C0005F936F937F938F939F93AF93BF93EF9377
:1049D000FF93CF93DF931F921F92CDB7DEB7009165
:1049E0006C3F10916D3FAE014F5F5F4FBE016E5F38
:1049F0007F4FD80115968D919C9116970E94A10921
:104A0000813031F4D801ED91FC918A81808306C018
:104A1000D801ED91FC9183818C7F83830F900F905F
:104A2000DF91CF91FF91EF91BF91AF919F918F91C6
:104A30007F916F915F914F913F912F911F910F91B6
:104A40000F900BBE0F900ABE0F9009BE0F9008BECC
:104A50000F900FBE0F901F9018951F920F920FB6D8
:104A60000F92112408B60F9218BE09B60F9219BE04
:104A70000AB60F921ABE0BB60F921BBE0F931F936E
:104A80002F933F934F935F936F937F938F939F9356
:104A9000AF93BF93EF93FF93CF93DF931F921F9238
:104AA000CDB7DEB700916A3F10916B3FAE014F5F0B
:104AB0005F4FBE016E5F7F4FD80115968D919C911F
:104AC00016970E94A109813031F4D801ED91FC9133
:104AD0008A81808306C0D801ED91FC9183818C7F0F
:104AE00083830F900F90DF91CF91FF91EF91BF9152
:104AF000AF919F918F917F916F915F914F913F9176
:104B00002F911F910F910F900BBE0F900ABE0F9027
:104B100009BE0F9008BE0F900FBE0F901F90189502
:104B2000C3D06FEF80E0E7D06FEF81E0E4D06FEFAC
:104B300082E0E1D06FEF83E0DED06FEF84E0DBD086
:104B40006FEF85E0D8D06FEF86E0D5D065E080E4E8
:104B500098E06ADB61E080E498E072DB83EF91E04B
:104B6000E0E4F8E086A397A31092743F1092753F9B
:104B70001092763F1092773F1092783F1092793FD3
:104B800010927A3F10927B3F1092703F1092713FCB
:104B90001092723F1092733FE0E0F6E091E0918353
:104BA00080E181839683868308951F920F920FB6CA
:104BB0000F92112408B60F9218BE09B60F9219BEB3
:104BC0002F934F935F936F937F938F939F93AF93A5
:104BD000BF938091743F9091753FA091763FB091C3
:104BE000773FAC01BD014F5F5F4F6F4F7F4F4093E9
:104BF000743F5093753F6093763F7093773F883E44
:104C00009340A105B105F1F51092743F1092753FE4
:104C10001092763F1092773F8091783F9091793F44
:104C2000A0917A3FB0917B3FAC01BD014F5F5F4FD8
:104C30006F4F7F4F4093783F5093793F60937A3F17
:104C400070937B3F80319E40A105B105D9F410924D
:104C5000783F1092793F10927A3F10927B3F80917B
:104C6000703F9091713FA091723FB091733F019658
:104C7000A11DB11D8093703F9093713FA093723F2F
:104C8000B093733FBF91AF919F918F917F916F913F
:104C90005F914F912F910F9009BE0F9008BE0F901A
:104CA0000FBE0F901F9018958FEF80937000809328
:104CB00071008093720080937300809374008093DE
:104CC0007500809376008FB7F894E0E5F0E090816E
:104CD000926090838FBF818181FFFDCF61E080E48E
:104CE00090E015D08FB7F894E0E5F0E090819E7FDA
:104CF00090838FBF08959FB7F894E82FF0E0E059B4
:104D0000FF4F60958081682360839FBF08951BBE1D
:104D1000FC0128ED24BF608308952F923F924F92AB
:104D20005F926F927F928F929F92AF92BF92CF923B
:104D3000DF92EF92FF920F931F93CF93DF93CDB744
:104D4000DEB76397CDBFDEBF7C011B016A01FC01AA
:104D500016821782838181FF49C3BE016F5F7F4F37
:104D60004B01F7019381F10193FD859193FF8191AF
:104D70001F01882309F436C3853239F493FD8591E8
:104D800093FF81911F01853231F4B70190E036D550
:104D900056016501E6CF10E0512C20E02032A0F44E
:104DA0008B3269F030F4803259F0833269F420613B
:104DB0002CC08D3239F0803339F4216026C0226056
:104DC000246023C0286021C027FD27C030ED380FA4
:104DD0003A3078F426FF06C0FAE01F9F300D112408
:104DE000132F13C06AE0569E300D1124532E2062FB
:104DF0000CC08E3221F426FDF5C2206406C08C362C
:104E000011F4206802C0883641F4F10193FD8591C8
:104E100093FF81911F018111C1CF9BEB980F9330BC
:104E200018F42061805E06C09BE9980F933008F06B
:104E30009AC12F7E26FF16E02F73722E853621F43D
:104E4000F22FF0647F2E08C0863621F4622F60684E
:104E5000762E02C01111115077FE07C01C3348F4A2
:104E600044244394410E27E00BC0183030F4212F26
:104E700006C027E04CE3442E03C027E017E0412C96
:104E8000560174E0A70EB11CF60160817181828128
:104E90009381042DA40155D36C01098100FF02C048
:104EA00003FF06C071FC07C072FC08C0612C08C07B
:104EB0003DE2632E05C02BE2622E02C090E2692E15
:104EC000802F8C7081F1662011F084E001C083E0B6
:104ED000851510F0512C0AC0581A73FC07C0B70191
:104EE00080E290E08BD45A94D1F7F4CF662021F081
:104EF000B701862D90E082D403FD03C00EE016E0DA
:104F000002C00AE016E0F72DF0717F2EF8018491BF
:104F1000882309F45EC271108052B70190E06ED40C
:104F20000F5F1F4FF3CF77FE0FC04C0C04FF04C080
:104F30008A81813309F44A94141474F5F8E0F41565
:104F400078F588E0482E2CC076FC2AC0812F90E0AE
:104F50008C159D059CF06CEFC6166FEFD60674F0AD
:104F6000772D7068772E0AC0E2E0F0E0EC0FFD1FAD
:104F7000E10FF11D8081803319F411501111F4CF2C
:104F800077FE0EC044244394410E812F90E0C81652
:104F9000D9062CF41C1904C04424439401C010E029
:104FA00077FE07C01C141D043CF496012F5F3F4F91
:104FB00005C025E030E002C021E030E0662011F0BD
:104FC0002F5F3F4F112331F0412F50E04F5F5F4F74
:104FD000240F351F452D50E02417350714F4521ABD
:104FE00001C0512C872D897041F4552031F0B70153
:104FF00080E290E003D45A94F8CF662021F0B70104
:10500000862D90E0FBD373FC08C0552031F0B7012A
:1050100080E390E0F3D35A94F8CF77FE5DC09C2DE7
:105020008D2DD7FE02C090E080E0692E782E40E002
:1050300050E0C601841991098C879D879601261935
:105040003709280D391D812F90E0EE27FF27E81B37
:10505000F90BEE87FF87FFEF6F167F0661F4B7014C
:105060008EE290E02B8B3A8B488B598BC7D35989B2
:1050700048893A892B89C614D70454F06C857D85FC
:10508000661577052CF4F901E40FF51F818101C045
:1050900080E371E0671A71084F5F5F4FEE85FF850F
:1050A0006E167F0664F0B70190E02B8B3A8B488B2D
:1050B000598BA4D32B893A8948895989CCCF6C1450
:1050C0007D0439F49A81963318F4953311F404FF72
:1050D00081E3B70190E045C08A81813309F00F7EFA
:1050E000B70190E08BD3111105C074FE16C085E4A2
:1050F00090E015C0B7018EE290E080D382E0662494
:105100006394680EF401E80FF11D8081B70190E00F
:1051100075D3115051F3862DF2CF85E690E0B7019B
:105120006DD3D7FC05C0C114D10439F404FF05C008
:10513000D194C194D1088DE201C08BE2B70190E017
:105140005DD380E36AE0C616D1042CF08F5FFAE0ED
:10515000CF1AD108F7CFB70190E050D3B701C601FD
:10516000C0964CD336C1833631F0833779F083351E
:1051700009F054C020C0560172E0A70EB11CF60120
:105180008081898301E010E0640113C05601F2E0E0
:10519000AF0EB11CF601C080D18026FF03C0612F85
:1051A00070E002C06FEF7FEFC6012B8BF9D28C014C
:1051B0002B892F7714C05601F2E0AF0EB11CF60117
:1051C000C080D18026FF03C0612F70E002C06FEF66
:1051D0007FEFC6012B8B8DD28C012B892068722E1C
:1051E00023FD18C0852D90E00817190798F4B70122
:1051F00080E290E003D35A94F5CFF60177FC8591D5
:1052000077FE81916F01B70190E0F8D251105A9466
:10521000015011090115110581F7DBC0843611F029
:10522000893649F5560127FF09C0F4E0AF0EB11CDD
:10523000F60160817181828193810AC0F2E0AF0E34
:10524000B11CF60160817181882777FD8095982FC8
:10525000022F0F7697FF08C0909580957095619505
:105260007F4F8F4F9F4F00682AE030E0A40120D38A
:10527000C82EC8183DC0022F853721F40F7E2AE0C2
:1052800030E01DC0097F8F3691F018F4883559F051
:10529000A9C0803719F0883711F0A4C0006104FF5D
:1052A00009C0046007C024FF08C0066006C028E0EB
:1052B00030E005C020E130E002C020E132E05601DC
:1052C00007FF09C0F4E0AF0EB11CF60160817181E7
:1052D0008281938108C0F2E0AF0EB11CF6016081BB
:1052E000718180E090E0A401E3D2C82EC8180F7746
:1052F00006FF0BC0202F2E7FC11650F404FF0AC0FA
:1053000002FD08C0202F2E7E05C0DC2C202F03C0FC
:10531000DC2C01C0D12E24FF0DC0FE01EC0DF11DCF
:105320008081803311F4297E09C022FF06C0D39406
:10533000D39404C0822F867809F0D39423FD12C041
:1053400020FF06C01C2DD51418F4150D1D19D52CE1
:10535000D51460F4B70180E290E02B8B4FD2D39448
:105360002B89F6CFD51410F45D1801C0512C24FF01
:1053700011C0B70180E390E02B8B40D22B8922FF34
:1053800016C021FF03C088E590E002C088E790E0E6
:10539000B7010CC0822F867851F021FD02C080E257
:1053A00001C08BE227FD8DE2B70190E027D2C11644
:1053B00030F4B70180E390E021D21150F8CFCA94C5
:1053C000F401EC0DF11D8081B70190E017D2C110FE
:1053D000F6CF552009F4DDCCB70180E290E00ED283
:1053E0005A94F7CFF7018681978102C08FEF9FEF24
:1053F0006396CDBFDEBFDF91CF911F910F91FF90DC
:10540000EF90DF90CF90BF90AF909F908F907F9064
:105410006F905F904F903F902F90089597FB072ECD
:1054200016F4009406D077FD08D020D007FC05D0F4
:105430003EF4909581959F4F0895709561957F4FAB
:105440000895EE0FFF1F0590F491E02D1994A29F8F
:10545000B001B39FC001A39F700D811D1124911D48
:10546000B29F700D811D1124911D0895AA1BBB1BB5
:1054700051E107C0AA1FBB1FA617B70710F0A61B54
:10548000B70B881F991F5A95A9F780959095BC0175
:10549000CD0108958F929F92AF92BF92CF92DF92EB
:1054A000EF92FF92CF93DF93EC01688179818A813B
:1054B0009B81611571058105910521F464E279ED07
:1054C0008BE597E02DE133EF41E050E05FD24901F9
:1054D0005A019B01AC01A7EAB1E474D26B017C01D3
:1054E000ACEEB4EFA501940179D2C60ED71EE81E2A
:1054F000F91EF7FE06C081E0C81AD108E10880E86D
:10550000F80AC882D982EA82FB82C6019F77DF91BE
:10551000CF91FF90EF90DF90CF90BF90AF909F9092
:105520008F900895B7CF80E090E2B4CFA0E0B0E0D4
:105530008093002090930120A0930220B093032039
:105540000895283008F027E03327DA01990F311D3C
:1055500087FD916000966105710539F432602E5F18
:105560003D9330E32A95E1F708959F3F30F080386E
:105570007105610509F03C5F3C5F3D93913008F097
:105580008068911DDF93CF931F930F93FF92EF924B
:10559000192F987F9695E92F96959695E90FFF27F5
:1055A000E459F94F99273327EE24FF24A701E70197
:1055B00005900894079428F4360FE71EF81E491F3B
:1055C000511D660F771F881F991F0694A1F705903C
:1055D000079428F4E70EF81E491F561FC11D770FC8
:1055E000881F991F661F0694A1F70590079428F459
:1055F000F80E491F561FC71FD11D880F991F661F20
:10560000771F0694A1F70590079420F4490F561FC1
:10561000C71FD81F990F661F771F881F0694A9F709
:1056200084911095177041F0D695C7955795479579
:10563000F794E7941A95C1F7E2E1F6E068941590C3
:10564000159135916591959105907FE27395E118DB
:10565000F10A430B560BC90BD009C0F7E10CF11E40
:10566000431F561FC91FD01D7EF4703311F48A9555
:10567000E6CFE894015030F0080F0AF40027021733
:1056800008F4202F2395022F7A3328F079E37D93B5
:105690002A95E9F710C07D932A9589F60694979587
:1056A0006795379517951794E118F10A430B560B38
:1056B000C90BD00998F023957E9173957A3308F041
:1056C00070E37C932013B8F77E9170617D9330F086
:1056D000839571E37D9370E32A95E1F71124EF90B0
:1056E000FF900F911F91CF91DF91992787FD9095A2
:1056F0000895FC010590615070400110D8F7809525
:1057000090958E0F9F1F0895FB01DC0104C08D91C1
:105710000190801921F441505040C8F7881B990B23
:105720000895FB01DC0102C001900D9241505040F0
:10573000D8F70895DC0101C06D9341505040E0F767
:105740000895FB01DC010D900020E9F7119701900D
:105750000D920020E1F70895FB01DC0101900D920C
:105760000020E1F70895FB01DC014150504030F08A
:105770008D910190801919F40020B9F7881B990BBD
:105780000895FB01DC014150504048F001900D921A
:105790000020C9F701C01D9241505040E0F7089524
:1057A000FC016150704001900110D8F780959095F0
:1057B0008E0F9F1F0895BB274A3031F4992322F49E
:1057C000BDE2909581959F4F01C0BB27FB015527F6
:1057D000AA27880F991FAA1FA41710F0A41B83954E
:1057E0005051B9F7A05DAA3308F0A95DA1930097C5
:1057F00079F7B111B1931192CB01B8C00F931F93F8
:10580000CF93DF93182F092FEB018B8181FD03C00C
:105810008FEF9FEF20C082FF10C04E815F812C81EF
:105820003D81421753077CF4E881F9819F012F5F86
:105830003F4F28833983108306C0E885F985812F7F
:105840001995892B29F72E813F812F5F3F4F2E839A
:105850003F83812F902FDF91CF911F910F9108955A
:105860000F931F93CF93DF93CDB7DEB72E97CDBFA6
:10587000DEBF0E891F8986E08C8309831A838FEF30
:105880009FE78D839E83AE01465E5F4F688D798D65
:10589000CE01019642DAEF81F885E00FF11F108208
:1058A0002E96CDBFDEBFDF91CF911F910F9108954E
:1058B000FA01AA27283051F1203181F1E8946F9341
:1058C0006E7F6E5F7F4F8F4F9F4FAF4FB1E03ED0E7
:1058D000B4E03CD0670F781F891F9A1FA11D680F85
:1058E000791F8A1F911DA11D6A0F711D811D911DB8
:1058F000A11D20D009F468943F912AE0269F11242D
:105900003019305D3193DEF6CF010895462F477090
:10591000405D4193B3E00FD0C9F7F6CF462F4F70EB
:10592000405D4A3318F0495D31FD4052419302D049
:10593000A9F7EACFB4E0A6959795879577956795EF
:10594000BA95C9F700976105710508959B01AC01EF
:105950000A2E06945795479537952795BA95C9F716
:10596000620F731F841F951FA01D0895DC01FC01A9
:10597000672F71917723E1F7329704C07C916D9383
:1059800070836291AE17BF07C8F30895052E97FB89
:1059900016F400940FD057FD05D024D007FC02D098
:1059A00046F408C050954095309521953F4F4F4F94
:1059B0005F4F089590958095709561957F4F8F4FBB
:1059C0009F4F089544DDA59F900DB49F900DA49F17
:1059D000800D911D11240895B7FFF4CFF3DF821BD2
:1059E000930B0895A1E21A2EAA1BBB1BFD010DC04B
:1059F000AA1FBB1FEE1FFF1FA217B307E407F5077F
:105A000020F0A21BB30BE40BF50B661F771F881F5A
:105A1000991F1A9469F760957095809590959B01F0
:0C5A2000AC01BD01CF010895F894FFCF48
:105A2C0001000000FFFFFFAF2000003E1E00000041
:105A3C00000000000000000000000000000000005A
:105A4C00000000000000000000000000000000004A
:105A5C000000000000000000000000B3200000F374
:105A6C001E0000000000000000000000000000000C
:105A7C00000000000000000000000000000000001A
:105A8C0000000000000000000000000000000025E5
:105A9C0073090925630925750925750925750D0AED
:105AAC000049444C4500546D7220537663005254A7
:105ABC004500756E6B6E6F776E004E6F76202032E0
:105ACC0020323031340031343A32333A33360049F3
